{
  "contracts/Escrow.sol": {
    "Escrow": {
      "abi": [
        {
          "inputs": [],
          "stateMutability": "nonpayable",
          "type": "constructor"
        },
        {
          "anonymous": false,
          "inputs": [
            {
              "indexed": true,
              "internalType": "bytes32",
              "name": "role",
              "type": "bytes32"
            },
            {
              "indexed": true,
              "internalType": "bytes32",
              "name": "previousAdminRole",
              "type": "bytes32"
            },
            {
              "indexed": true,
              "internalType": "bytes32",
              "name": "newAdminRole",
              "type": "bytes32"
            }
          ],
          "name": "RoleAdminChanged",
          "type": "event"
        },
        {
          "anonymous": false,
          "inputs": [
            {
              "indexed": true,
              "internalType": "bytes32",
              "name": "role",
              "type": "bytes32"
            },
            {
              "indexed": true,
              "internalType": "address",
              "name": "account",
              "type": "address"
            },
            {
              "indexed": true,
              "internalType": "address",
              "name": "sender",
              "type": "address"
            }
          ],
          "name": "RoleGranted",
          "type": "event"
        },
        {
          "anonymous": false,
          "inputs": [
            {
              "indexed": true,
              "internalType": "bytes32",
              "name": "role",
              "type": "bytes32"
            },
            {
              "indexed": true,
              "internalType": "address",
              "name": "account",
              "type": "address"
            },
            {
              "indexed": true,
              "internalType": "address",
              "name": "sender",
              "type": "address"
            }
          ],
          "name": "RoleRevoked",
          "type": "event"
        },
        {
          "inputs": [],
          "name": "Agent",
          "outputs": [
            {
              "internalType": "bytes32",
              "name": "",
              "type": "bytes32"
            }
          ],
          "stateMutability": "view",
          "type": "function"
        },
        {
          "inputs": [],
          "name": "DEFAULT_ADMIN_ROLE",
          "outputs": [
            {
              "internalType": "bytes32",
              "name": "",
              "type": "bytes32"
            }
          ],
          "stateMutability": "view",
          "type": "function"
        },
        {
          "inputs": [
            {
              "internalType": "address",
              "name": "receiver",
              "type": "address"
            }
          ],
          "name": "DepositeFor",
          "outputs": [],
          "stateMutability": "payable",
          "type": "function"
        },
        {
          "inputs": [],
          "name": "Receiver",
          "outputs": [
            {
              "internalType": "bytes32",
              "name": "",
              "type": "bytes32"
            }
          ],
          "stateMutability": "view",
          "type": "function"
        },
        {
          "inputs": [],
          "name": "Sender",
          "outputs": [
            {
              "internalType": "bytes32",
              "name": "",
              "type": "bytes32"
            }
          ],
          "stateMutability": "view",
          "type": "function"
        },
        {
          "inputs": [],
          "name": "Withdraw",
          "outputs": [],
          "stateMutability": "nonpayable",
          "type": "function"
        },
        {
          "inputs": [
            {
              "internalType": "bytes32",
              "name": "c__0x4a11fab0",
              "type": "bytes32"
            }
          ],
          "name": "c_0x4a11fab0",
          "outputs": [],
          "stateMutability": "pure",
          "type": "function"
        },
        {
          "inputs": [],
          "name": "getBalance",
          "outputs": [
            {
              "internalType": "uint256",
              "name": "",
              "type": "uint256"
            }
          ],
          "stateMutability": "view",
          "type": "function"
        },
        {
          "inputs": [
            {
              "internalType": "bytes32",
              "name": "role",
              "type": "bytes32"
            }
          ],
          "name": "getRoleAdmin",
          "outputs": [
            {
              "internalType": "bytes32",
              "name": "",
              "type": "bytes32"
            }
          ],
          "stateMutability": "view",
          "type": "function"
        },
        {
          "inputs": [
            {
              "internalType": "bytes32",
              "name": "role",
              "type": "bytes32"
            },
            {
              "internalType": "address",
              "name": "account",
              "type": "address"
            }
          ],
          "name": "grantRole",
          "outputs": [],
          "stateMutability": "nonpayable",
          "type": "function"
        },
        {
          "inputs": [
            {
              "internalType": "bytes32",
              "name": "role",
              "type": "bytes32"
            },
            {
              "internalType": "address",
              "name": "account",
              "type": "address"
            }
          ],
          "name": "hasRole",
          "outputs": [
            {
              "internalType": "bool",
              "name": "",
              "type": "bool"
            }
          ],
          "stateMutability": "view",
          "type": "function"
        },
        {
          "inputs": [
            {
              "internalType": "bytes32",
              "name": "role",
              "type": "bytes32"
            },
            {
              "internalType": "address",
              "name": "account",
              "type": "address"
            }
          ],
          "name": "renounceRole",
          "outputs": [],
          "stateMutability": "nonpayable",
          "type": "function"
        },
        {
          "inputs": [
            {
              "internalType": "bytes32",
              "name": "role",
              "type": "bytes32"
            },
            {
              "internalType": "address",
              "name": "account",
              "type": "address"
            }
          ],
          "name": "revokeRole",
          "outputs": [],
          "stateMutability": "nonpayable",
          "type": "function"
        },
        {
          "inputs": [
            {
              "internalType": "bytes4",
              "name": "interfaceId",
              "type": "bytes4"
            }
          ],
          "name": "supportsInterface",
          "outputs": [
            {
              "internalType": "bool",
              "name": "",
              "type": "bool"
            }
          ],
          "stateMutability": "view",
          "type": "function"
        }
      ],
      "evm": {
        "bytecode": {
          "linkReferences": {},
          "object": "6080604052603c6001553480156200001657600080fd5b506200004b7f84131a19cb5b4f872c17a761a6aacf96bd33f3c9561046e0b601aa548253775360001b6200015a60201b60201c565b6200007f7fc7a877296f53d9b24d400878a7e6b3ca7f16a460de5845c584026a72fa8463c760001b6200015a60201b60201c565b620000b37f54eac6c755cdc65cda9a7d6dd0c0ccd949cd5f19cf711a5de3f7d795a11ea81a60001b6200015a60201b60201c565b42600281905550620000ee7ff08908da1ac460c08e06c63db356c0088ded57275e2dd282c1abceef1d23d38d60001b6200015a60201b60201c565b620001227f50cfc62a4118364ed15eb892d6ade10ae20ef93d84f4fa7b0f33235b2ed1f07360001b6200015a60201b60201c565b620001547fd0d9c70b33dd60afacb55d8ff719509eca8de63778217873fac25c4d1f90353d336200015d60201b60201c565b620002c0565b50565b6200016f82826200024e60201b60201c565b6200024a57600160008084815260200190815260200160002060000160008373ffffffffffffffffffffffffffffffffffffffff1673ffffffffffffffffffffffffffffffffffffffff16815260200190815260200160002060006101000a81548160ff021916908315150217905550620001ef620002b860201b60201c565b73ffffffffffffffffffffffffffffffffffffffff168173ffffffffffffffffffffffffffffffffffffffff16837f2f8788117e7eff1d82e926ec794901d17c78024a50270940304540a733656f0d60405160405180910390a45b5050565b600080600084815260200190815260200160002060000160008373ffffffffffffffffffffffffffffffffffffffff1673ffffffffffffffffffffffffffffffffffffffff16815260200190815260200160002060009054906101000a900460ff16905092915050565b600033905090565b611bf780620002d06000396000f3fe6080604052600436106100dd5760003560e01c80637df4151e1161007f578063a217fddf11610059578063a217fddf1461029f578063cc693304146102ca578063d547741f146102f3578063eea96c571461031c576100dd565b80637df4151e1461021b5780639068ed171461023757806391d1485414610262576100dd565b80632f2ff15d116100bb5780632f2ff15d1461018757806336568abe146101b057806357ea89b6146101d95780637312c065146101f0576100dd565b806301ffc9a7146100e257806312065fe01461011f578063248a9ca31461014a575b600080fd5b3480156100ee57600080fd5b5061010960048036038101906101049190611517565b610347565b6040516101169190611843565b60405180910390f35b34801561012b57600080fd5b506101346103c1565b604051610141919061193b565b60405180910390f35b34801561015657600080fd5b50610171600480360381019061016c91906114b2565b61044d565b60405161017e919061185e565b60405180910390f35b34801561019357600080fd5b506101ae60048036038101906101a991906114db565b61046c565b005b3480156101bc57600080fd5b506101d760048036038101906101d291906114db565b610495565b005b3480156101e557600080fd5b506101ee610518565b005b3480156101fc57600080fd5b50610205610ba8565b604051610212919061185e565b60405180910390f35b61023560048036038101906102309190611489565b610bcc565b005b34801561024357600080fd5b5061024c610d9b565b604051610259919061185e565b60405180910390f35b34801561026e57600080fd5b50610289600480360381019061028491906114db565b610dbf565b6040516102969190611843565b60405180910390f35b3480156102ab57600080fd5b506102b4610e29565b6040516102c1919061185e565b60405180910390f35b3480156102d657600080fd5b506102f160048036038101906102ec91906114b2565b610e30565b005b3480156102ff57600080fd5b5061031a600480360381019061031591906114db565b610e33565b005b34801561032857600080fd5b50610331610e5c565b60405161033e919061185e565b60405180910390f35b60007f7965db0b000000000000000000000000000000000000000000000000000000007bffffffffffffffffffffffffffffffffffffffffffffffffffffffff1916827bffffffffffffffffffffffffffffffffffffffffffffffffffffffff191614806103ba57506103b982610e80565b5b9050919050565b60006103ef7ff940e4b85aba930bcd75a9db89d541dfb8cdf76a6578a626840b4e1f1cb3213860001b610e30565b61041b7f1516aeb32666e8419541aa513fe5e187b6757c574b21979b5cb31fca0eb0091860001b610e30565b6104477f7193ac124993badfbe0e9d3b5a2e83f449cafc7b111b5974545d5f2184cbc7f960001b610e30565b47905090565b6000806000838152602001908152602001600020600101549050919050565b6104758261044d565b61048681610481610eea565b610ef2565b6104908383610f8f565b505050565b61049d610eea565b73ffffffffffffffffffffffffffffffffffffffff168173ffffffffffffffffffffffffffffffffffffffff161461050a576040517f08c379a00000000000000000000000000000000000000000000000000000000081526004016105019061191b565b60405180910390fd5b610514828261106f565b5050565b6105447fd3948f3f607f778891d56ad51e0128f8e6b7f81ec455d9e421b0bec87e83988960001b610e30565b6105707f0eecbcc592a072cfe50554294930e6142c730d6cf0c915a19682633ef81afcab60001b610e30565b61059c7f27b3638c048ec503644775686a5aeec61dc631f0fef44ab032966b480799f0c860001b610e30565b6000600254426105ac9190611a2d565b90506105da7f20c3e1940a623450a7d99ba90a1a4e0cfcc2e3e46f95ce48c77064dacdd5728160001b610e30565b6106067ffcd60b620aa50e073f0a3599f69f0cd8ea3650ef4331410c11feadd4de23196960001b610e30565b6106307fcf2b1209506b76f140fb1bc5fe66d6e42627c4b9703a951d65552f50f14c9ee733610dbf565b156108ed576106617f9ff8371addd979d48cae2ec33aca4a5cdbb72e1ae909e9b56d60892e5c3d86b660001b610e30565b61068d7fa9e2f6c6144b16721713b36ecae4fbf58041aeed490d77c0a5c968efd0cdc9c060001b610e30565b6106b97f7bebf1a378c1b4e494a4607a1239b25ce82cec21d6c79fe1827b1ecbfedf8b8860001b610e30565b6106e57fb65f2f93d9c6955d38b5a260b437c35aa27ab48bc2e5365df355ecf92c627ead60001b610e30565b60004711610728576040517f08c379a000000000000000000000000000000000000000000000000000000000815260040161071f906118bb565b60405180910390fd5b6107547fea2eaf16508de3eef011a3cb1b54842cef2c0118cfc20440d07f1716fce387c360001b610e30565b6107807f353530825f6118b2876104b223f158c71d7d5ee2340cfb936670cd8141d476c160001b610e30565b6107ac7f8ba2e382066f9dd6559076cf5a646ddc0d4afd649476bc94052bbf102e60b6cf60001b610e30565b6107d87f83bd498e29b8d845bf410200cfd1119d83e41ba66d8d7cfa6aaaf2dd8ace3d3a60001b610e30565b60015481101561081d576040517f08c379a0000000000000000000000000000000000000000000000000000000008152600401610814906118fb565b60405180910390fd5b6108497f1acda2d904dd09db6550fc6fc228d84f07a1bf9773c21355d7619b98ae5c786a60001b610e30565b6108757fb692d5e694ab31f8cf4e1ddb7685fda7e9d77586253bc49b1f5deee61742cbdb60001b610e30565b6108a17f5bed96bd93360cdea47d16872522a9ef4ff8ed765bf46668709d38c5d4c3ae1e60001b610e30565b3373ffffffffffffffffffffffffffffffffffffffff166108fc479081150290604051600060405180830381858888f193505050501580156108e7573d6000803e3d6000fd5b50610ba5565b6109197f1cb0293473e6ab5c4f3a511687e8bdb4e3ccfc46572419f6b8b9f908fac7288d60001b610e30565b6109457f18d700b0427c61aa1f94dafe07521f8ce2946d1917321fe866d16f8b477827c060001b610e30565b61096f7f94201143cc0a32610f14f8f185ebb23e4ca60f1758e49668647d0879b1e81f0b33610dbf565b15610b77576109a07f564648632762b164cc7112f31b30371357880b50d903333e2bc08f6398a4141760001b610e30565b6109cc7fff7a87f0401d996c63bdca2413c2869b27152961d9c59f6b730131e8f0b9337d60001b610e30565b6109f87f34584c10c309ec55c278942c613ff96a93dc7f39cfe965b13627055dfb4eb42f60001b610e30565b610a247ff58416594e253a011e4e87d6e91084e8b3a0974e7e80d44ec90c41863bd735e060001b610e30565b6001548110610a68576040517f08c379a0000000000000000000000000000000000000000000000000000000008152600401610a5f906118db565b60405180910390fd5b610a947fcc922f9768b0154405171caba1fc588af0442b7cde4b427bd284e6054c5366c060001b610e30565b610ac07f05534accf0f29b30a3371de7003a0bd6926de7ff01f004042c1396f697ad3b7f60001b610e30565b610aec7ff993779e2a3ae320440d1217d66ee65a213d1210340834cdb80597b5644344ee60001b610e30565b3373ffffffffffffffffffffffffffffffffffffffff166108fc600360003373ffffffffffffffffffffffffffffffffffffffff1673ffffffffffffffffffffffffffffffffffffffff168152602001908152602001600020549081150290604051600060405180830381858888f19350505050158015610b71573d6000803e3d6000fd5b50610ba4565b610ba37f01644bf14b16b8fb24b8d47cdbbf86ed7e6fe318587da3fdd106aea474addad260001b610e30565b5b5b50565b7f94201143cc0a32610f14f8f185ebb23e4ca60f1758e49668647d0879b1e81f0b81565b610bf87f1c4dc149f636b2caac596833199eb0b5b9cd477140e9cc300d6d76ec34c06b1f60001b610e30565b610c247f53fb0d1c98f4de871d949a71b6e70398736e47f35ffe18da3af9fe48295fe3f660001b610e30565b610c507f1e522c1653f2106ea7b3f50885488c51ef83905f1e554ab22780545ed27969c060001b610e30565b610c7a7fcf2b1209506b76f140fb1bc5fe66d6e42627c4b9703a951d65552f50f14c9ee733610f8f565b610ca67f7deecb4f316c2897bd8e67e8a3f36dbc2aa603fd55db92065f07c427dda0930a60001b610e30565b610cd27f7d36f81d66657bee4f373ef1e101a1da2747ba760266885e3e6e83928fe6dfe860001b610e30565b610cfc7f94201143cc0a32610f14f8f185ebb23e4ca60f1758e49668647d0879b1e81f0b82610f8f565b610d287fc376bb8ea45b8a5f85773df752545e7c53715693f01240524a7df007e0186ea560001b610e30565b610d547f60fdc01c3a7504e8bd27caab36187818be87ed5eea3f6f2633a3b5c5ed1e56d260001b610e30565b34600360008373ffffffffffffffffffffffffffffffffffffffff1673ffffffffffffffffffffffffffffffffffffffff1681526020019081526020016000208190555050565b7fd0d9c70b33dd60afacb55d8ff719509eca8de63778217873fac25c4d1f90353d81565b600080600084815260200190815260200160002060000160008373ffffffffffffffffffffffffffffffffffffffff1673ffffffffffffffffffffffffffffffffffffffff16815260200190815260200160002060009054906101000a900460ff16905092915050565b6000801b81565b50565b610e3c8261044d565b610e4d81610e48610eea565b610ef2565b610e57838361106f565b505050565b7fcf2b1209506b76f140fb1bc5fe66d6e42627c4b9703a951d65552f50f14c9ee781565b60007f01ffc9a7000000000000000000000000000000000000000000000000000000007bffffffffffffffffffffffffffffffffffffffffffffffffffffffff1916827bffffffffffffffffffffffffffffffffffffffffffffffffffffffff1916149050919050565b600033905090565b610efc8282610dbf565b610f8b57610f218173ffffffffffffffffffffffffffffffffffffffff166014611150565b610f2f8360001c6020611150565b604051602001610f40929190611809565b6040516020818303038152906040526040517f08c379a0000000000000000000000000000000000000000000000000000000008152600401610f829190611879565b60405180910390fd5b5050565b610f998282610dbf565b61106b57600160008084815260200190815260200160002060000160008373ffffffffffffffffffffffffffffffffffffffff1673ffffffffffffffffffffffffffffffffffffffff16815260200190815260200160002060006101000a81548160ff021916908315150217905550611010610eea565b73ffffffffffffffffffffffffffffffffffffffff168173ffffffffffffffffffffffffffffffffffffffff16837f2f8788117e7eff1d82e926ec794901d17c78024a50270940304540a733656f0d60405160405180910390a45b5050565b6110798282610dbf565b1561114c57600080600084815260200190815260200160002060000160008373ffffffffffffffffffffffffffffffffffffffff1673ffffffffffffffffffffffffffffffffffffffff16815260200190815260200160002060006101000a81548160ff0219169083151502179055506110f1610eea565b73ffffffffffffffffffffffffffffffffffffffff168173ffffffffffffffffffffffffffffffffffffffff16837ff6391f5c32d9c69d2a47ea670b442974b53935d1edc7fd64eb21e047a839171b60405160405180910390a45b5050565b60606000600283600261116391906119d3565b61116d919061197d565b67ffffffffffffffff8111156111ac577f4e487b7100000000000000000000000000000000000000000000000000000000600052604160045260246000fd5b6040519080825280601f01601f1916602001820160405280156111de5781602001600182028036833780820191505090505b5090507f30000000000000000000000000000000000000000000000000000000000000008160008151811061123c577f4e487b7100000000000000000000000000000000000000000000000000000000600052603260045260246000fd5b60200101907effffffffffffffffffffffffffffffffffffffffffffffffffffffffffffff1916908160001a9053507f7800000000000000000000000000000000000000000000000000000000000000816001815181106112c6577f4e487b7100000000000000000000000000000000000000000000000000000000600052603260045260246000fd5b60200101907effffffffffffffffffffffffffffffffffffffffffffffffffffffffffffff1916908160001a9053506000600184600261130691906119d3565b611310919061197d565b90505b60018111156113fc577f3031323334353637383961626364656600000000000000000000000000000000600f861660108110611378577f4e487b7100000000000000000000000000000000000000000000000000000000600052603260045260246000fd5b1a60f81b8282815181106113b5577f4e487b7100000000000000000000000000000000000000000000000000000000600052603260045260246000fd5b60200101907effffffffffffffffffffffffffffffffffffffffffffffffffffffffffffff1916908160001a905350600485901c9450806113f590611b12565b9050611313565b5060008414611440576040517f08c379a00000000000000000000000000000000000000000000000000000000081526004016114379061189b565b60405180910390fd5b8091505092915050565b60008135905061145981611b7c565b92915050565b60008135905061146e81611b93565b92915050565b60008135905061148381611baa565b92915050565b60006020828403121561149b57600080fd5b60006114a98482850161144a565b91505092915050565b6000602082840312156114c457600080fd5b60006114d28482850161145f565b91505092915050565b600080604083850312156114ee57600080fd5b60006114fc8582860161145f565b925050602061150d8582860161144a565b9150509250929050565b60006020828403121561152957600080fd5b600061153784828501611474565b91505092915050565b61154981611a73565b82525050565b61155881611a7f565b82525050565b600061156982611956565b6115738185611961565b9350611583818560208601611adf565b61158c81611b6b565b840191505092915050565b60006115a282611956565b6115ac8185611972565b93506115bc818560208601611adf565b80840191505092915050565b60006115d5602083611961565b91507f537472696e67733a20686578206c656e67746820696e73756666696369656e746000830152602082019050919050565b6000611615601283611961565b91507f6e6f2066756e647320617661696c61626c6500000000000000000000000000006000830152602082019050919050565b6000611655603083611961565b91507f74696d652069732075702c207468652066756e6473206172652072657475726e60008301527f656420746f207468652073656e646572000000000000000000000000000000006020830152604082019050919050565b60006116bb601783611972565b91507f416363657373436f6e74726f6c3a206163636f756e74200000000000000000006000830152601782019050919050565b60006116fb602583611961565b91507f796f752063616e742067657420726566756e64206265666f72652074696d652060008301527f6c696d69740000000000000000000000000000000000000000000000000000006020830152604082019050919050565b6000611761601183611972565b91507f206973206d697373696e6720726f6c65200000000000000000000000000000006000830152601182019050919050565b60006117a1602f83611961565b91507f416363657373436f6e74726f6c3a2063616e206f6e6c792072656e6f756e636560008301527f20726f6c657320666f722073656c6600000000000000000000000000000000006020830152604082019050919050565b61180381611ad5565b82525050565b6000611814826116ae565b91506118208285611597565b915061182b82611754565b91506118378284611597565b91508190509392505050565b60006020820190506118586000830184611540565b92915050565b6000602082019050611873600083018461154f565b92915050565b60006020820190508181036000830152611893818461155e565b905092915050565b600060208201905081810360008301526118b4816115c8565b9050919050565b600060208201905081810360008301526118d481611608565b9050919050565b600060208201905081810360008301526118f481611648565b9050919050565b60006020820190508181036000830152611914816116ee565b9050919050565b6000602082019050818103600083015261193481611794565b9050919050565b600060208201905061195060008301846117fa565b92915050565b600081519050919050565b600082825260208201905092915050565b600081905092915050565b600061198882611ad5565b915061199383611ad5565b9250827fffffffffffffffffffffffffffffffffffffffffffffffffffffffffffffffff038211156119c8576119c7611b3c565b5b828201905092915050565b60006119de82611ad5565b91506119e983611ad5565b9250817fffffffffffffffffffffffffffffffffffffffffffffffffffffffffffffffff0483118215151615611a2257611a21611b3c565b5b828202905092915050565b6000611a3882611ad5565b9150611a4383611ad5565b925082821015611a5657611a55611b3c565b5b828203905092915050565b6000611a6c82611ab5565b9050919050565b60008115159050919050565b6000819050919050565b60007fffffffff0000000000000000000000000000000000000000000000000000000082169050919050565b600073ffffffffffffffffffffffffffffffffffffffff82169050919050565b6000819050919050565b60005b83811015611afd578082015181840152602081019050611ae2565b83811115611b0c576000848401525b50505050565b6000611b1d82611ad5565b91506000821415611b3157611b30611b3c565b5b600182039050919050565b7f4e487b7100000000000000000000000000000000000000000000000000000000600052601160045260246000fd5b6000601f19601f8301169050919050565b611b8581611a61565b8114611b9057600080fd5b50565b611b9c81611a7f565b8114611ba757600080fd5b50565b611bb381611a89565b8114611bbe57600080fd5b5056fea2646970667358221220e75585b70018b53deedc63b4560ef95265c1592b9828f5044069a750f2724cab64736f6c63430008000033",
          "opcodes": "PUSH1 0x80 PUSH1 0x40 MSTORE PUSH1 0x3C PUSH1 0x1 SSTORE CALLVALUE DUP1 ISZERO PUSH3 0x16 JUMPI PUSH1 0x0 DUP1 REVERT JUMPDEST POP PUSH3 0x4B PUSH32 0x84131A19CB5B4F872C17A761A6AACF96BD33F3C9561046E0B601AA5482537753 PUSH1 0x0 SHL PUSH3 0x15A PUSH1 0x20 SHL PUSH1 0x20 SHR JUMP JUMPDEST PUSH3 0x7F PUSH32 0xC7A877296F53D9B24D400878A7E6B3CA7F16A460DE5845C584026A72FA8463C7 PUSH1 0x0 SHL PUSH3 0x15A PUSH1 0x20 SHL PUSH1 0x20 SHR JUMP JUMPDEST PUSH3 0xB3 PUSH32 0x54EAC6C755CDC65CDA9A7D6DD0C0CCD949CD5F19CF711A5DE3F7D795A11EA81A PUSH1 0x0 SHL PUSH3 0x15A PUSH1 0x20 SHL PUSH1 0x20 SHR JUMP JUMPDEST TIMESTAMP PUSH1 0x2 DUP2 SWAP1 SSTORE POP PUSH3 0xEE PUSH32 0xF08908DA1AC460C08E06C63DB356C0088DED57275E2DD282C1ABCEEF1D23D38D PUSH1 0x0 SHL PUSH3 0x15A PUSH1 0x20 SHL PUSH1 0x20 SHR JUMP JUMPDEST PUSH3 0x122 PUSH32 0x50CFC62A4118364ED15EB892D6ADE10AE20EF93D84F4FA7B0F33235B2ED1F073 PUSH1 0x0 SHL PUSH3 0x15A PUSH1 0x20 SHL PUSH1 0x20 SHR JUMP JUMPDEST PUSH3 0x154 PUSH32 0xD0D9C70B33DD60AFACB55D8FF719509ECA8DE63778217873FAC25C4D1F90353D CALLER PUSH3 0x15D PUSH1 0x20 SHL PUSH1 0x20 SHR JUMP JUMPDEST PUSH3 0x2C0 JUMP JUMPDEST POP JUMP JUMPDEST PUSH3 0x16F DUP3 DUP3 PUSH3 0x24E PUSH1 0x20 SHL PUSH1 0x20 SHR JUMP JUMPDEST PUSH3 0x24A JUMPI PUSH1 0x1 PUSH1 0x0 DUP1 DUP5 DUP2 MSTORE PUSH1 0x20 ADD SWAP1 DUP2 MSTORE PUSH1 0x20 ADD PUSH1 0x0 KECCAK256 PUSH1 0x0 ADD PUSH1 0x0 DUP4 PUSH20 0xFFFFFFFFFFFFFFFFFFFFFFFFFFFFFFFFFFFFFFFF AND PUSH20 0xFFFFFFFFFFFFFFFFFFFFFFFFFFFFFFFFFFFFFFFF AND DUP2 MSTORE PUSH1 0x20 ADD SWAP1 DUP2 MSTORE PUSH1 0x20 ADD PUSH1 0x0 KECCAK256 PUSH1 0x0 PUSH2 0x100 EXP DUP2 SLOAD DUP2 PUSH1 0xFF MUL NOT AND SWAP1 DUP4 ISZERO ISZERO MUL OR SWAP1 SSTORE POP PUSH3 0x1EF PUSH3 0x2B8 PUSH1 0x20 SHL PUSH1 0x20 SHR JUMP JUMPDEST PUSH20 0xFFFFFFFFFFFFFFFFFFFFFFFFFFFFFFFFFFFFFFFF AND DUP2 PUSH20 0xFFFFFFFFFFFFFFFFFFFFFFFFFFFFFFFFFFFFFFFF AND DUP4 PUSH32 0x2F8788117E7EFF1D82E926EC794901D17C78024A50270940304540A733656F0D PUSH1 0x40 MLOAD PUSH1 0x40 MLOAD DUP1 SWAP2 SUB SWAP1 LOG4 JUMPDEST POP POP JUMP JUMPDEST PUSH1 0x0 DUP1 PUSH1 0x0 DUP5 DUP2 MSTORE PUSH1 0x20 ADD SWAP1 DUP2 MSTORE PUSH1 0x20 ADD PUSH1 0x0 KECCAK256 PUSH1 0x0 ADD PUSH1 0x0 DUP4 PUSH20 0xFFFFFFFFFFFFFFFFFFFFFFFFFFFFFFFFFFFFFFFF AND PUSH20 0xFFFFFFFFFFFFFFFFFFFFFFFFFFFFFFFFFFFFFFFF AND DUP2 MSTORE PUSH1 0x20 ADD SWAP1 DUP2 MSTORE PUSH1 0x20 ADD PUSH1 0x0 KECCAK256 PUSH1 0x0 SWAP1 SLOAD SWAP1 PUSH2 0x100 EXP SWAP1 DIV PUSH1 0xFF AND SWAP1 POP SWAP3 SWAP2 POP POP JUMP JUMPDEST PUSH1 0x0 CALLER SWAP1 POP SWAP1 JUMP JUMPDEST PUSH2 0x1BF7 DUP1 PUSH3 0x2D0 PUSH1 0x0 CODECOPY PUSH1 0x0 RETURN INVALID PUSH1 0x80 PUSH1 0x40 MSTORE PUSH1 0x4 CALLDATASIZE LT PUSH2 0xDD JUMPI PUSH1 0x0 CALLDATALOAD PUSH1 0xE0 SHR DUP1 PUSH4 0x7DF4151E GT PUSH2 0x7F JUMPI DUP1 PUSH4 0xA217FDDF GT PUSH2 0x59 JUMPI DUP1 PUSH4 0xA217FDDF EQ PUSH2 0x29F JUMPI DUP1 PUSH4 0xCC693304 EQ PUSH2 0x2CA JUMPI DUP1 PUSH4 0xD547741F EQ PUSH2 0x2F3 JUMPI DUP1 PUSH4 0xEEA96C57 EQ PUSH2 0x31C JUMPI PUSH2 0xDD JUMP JUMPDEST DUP1 PUSH4 0x7DF4151E EQ PUSH2 0x21B JUMPI DUP1 PUSH4 0x9068ED17 EQ PUSH2 0x237 JUMPI DUP1 PUSH4 0x91D14854 EQ PUSH2 0x262 JUMPI PUSH2 0xDD JUMP JUMPDEST DUP1 PUSH4 0x2F2FF15D GT PUSH2 0xBB JUMPI DUP1 PUSH4 0x2F2FF15D EQ PUSH2 0x187 JUMPI DUP1 PUSH4 0x36568ABE EQ PUSH2 0x1B0 JUMPI DUP1 PUSH4 0x57EA89B6 EQ PUSH2 0x1D9 JUMPI DUP1 PUSH4 0x7312C065 EQ PUSH2 0x1F0 JUMPI PUSH2 0xDD JUMP JUMPDEST DUP1 PUSH4 0x1FFC9A7 EQ PUSH2 0xE2 JUMPI DUP1 PUSH4 0x12065FE0 EQ PUSH2 0x11F JUMPI DUP1 PUSH4 0x248A9CA3 EQ PUSH2 0x14A JUMPI JUMPDEST PUSH1 0x0 DUP1 REVERT JUMPDEST CALLVALUE DUP1 ISZERO PUSH2 0xEE JUMPI PUSH1 0x0 DUP1 REVERT JUMPDEST POP PUSH2 0x109 PUSH1 0x4 DUP1 CALLDATASIZE SUB DUP2 ADD SWAP1 PUSH2 0x104 SWAP2 SWAP1 PUSH2 0x1517 JUMP JUMPDEST PUSH2 0x347 JUMP JUMPDEST PUSH1 0x40 MLOAD PUSH2 0x116 SWAP2 SWAP1 PUSH2 0x1843 JUMP JUMPDEST PUSH1 0x40 MLOAD DUP1 SWAP2 SUB SWAP1 RETURN JUMPDEST CALLVALUE DUP1 ISZERO PUSH2 0x12B JUMPI PUSH1 0x0 DUP1 REVERT JUMPDEST POP PUSH2 0x134 PUSH2 0x3C1 JUMP JUMPDEST PUSH1 0x40 MLOAD PUSH2 0x141 SWAP2 SWAP1 PUSH2 0x193B JUMP JUMPDEST PUSH1 0x40 MLOAD DUP1 SWAP2 SUB SWAP1 RETURN JUMPDEST CALLVALUE DUP1 ISZERO PUSH2 0x156 JUMPI PUSH1 0x0 DUP1 REVERT JUMPDEST POP PUSH2 0x171 PUSH1 0x4 DUP1 CALLDATASIZE SUB DUP2 ADD SWAP1 PUSH2 0x16C SWAP2 SWAP1 PUSH2 0x14B2 JUMP JUMPDEST PUSH2 0x44D JUMP JUMPDEST PUSH1 0x40 MLOAD PUSH2 0x17E SWAP2 SWAP1 PUSH2 0x185E JUMP JUMPDEST PUSH1 0x40 MLOAD DUP1 SWAP2 SUB SWAP1 RETURN JUMPDEST CALLVALUE DUP1 ISZERO PUSH2 0x193 JUMPI PUSH1 0x0 DUP1 REVERT JUMPDEST POP PUSH2 0x1AE PUSH1 0x4 DUP1 CALLDATASIZE SUB DUP2 ADD SWAP1 PUSH2 0x1A9 SWAP2 SWAP1 PUSH2 0x14DB JUMP JUMPDEST PUSH2 0x46C JUMP JUMPDEST STOP JUMPDEST CALLVALUE DUP1 ISZERO PUSH2 0x1BC JUMPI PUSH1 0x0 DUP1 REVERT JUMPDEST POP PUSH2 0x1D7 PUSH1 0x4 DUP1 CALLDATASIZE SUB DUP2 ADD SWAP1 PUSH2 0x1D2 SWAP2 SWAP1 PUSH2 0x14DB JUMP JUMPDEST PUSH2 0x495 JUMP JUMPDEST STOP JUMPDEST CALLVALUE DUP1 ISZERO PUSH2 0x1E5 JUMPI PUSH1 0x0 DUP1 REVERT JUMPDEST POP PUSH2 0x1EE PUSH2 0x518 JUMP JUMPDEST STOP JUMPDEST CALLVALUE DUP1 ISZERO PUSH2 0x1FC JUMPI PUSH1 0x0 DUP1 REVERT JUMPDEST POP PUSH2 0x205 PUSH2 0xBA8 JUMP JUMPDEST PUSH1 0x40 MLOAD PUSH2 0x212 SWAP2 SWAP1 PUSH2 0x185E JUMP JUMPDEST PUSH1 0x40 MLOAD DUP1 SWAP2 SUB SWAP1 RETURN JUMPDEST PUSH2 0x235 PUSH1 0x4 DUP1 CALLDATASIZE SUB DUP2 ADD SWAP1 PUSH2 0x230 SWAP2 SWAP1 PUSH2 0x1489 JUMP JUMPDEST PUSH2 0xBCC JUMP JUMPDEST STOP JUMPDEST CALLVALUE DUP1 ISZERO PUSH2 0x243 JUMPI PUSH1 0x0 DUP1 REVERT JUMPDEST POP PUSH2 0x24C PUSH2 0xD9B JUMP JUMPDEST PUSH1 0x40 MLOAD PUSH2 0x259 SWAP2 SWAP1 PUSH2 0x185E JUMP JUMPDEST PUSH1 0x40 MLOAD DUP1 SWAP2 SUB SWAP1 RETURN JUMPDEST CALLVALUE DUP1 ISZERO PUSH2 0x26E JUMPI PUSH1 0x0 DUP1 REVERT JUMPDEST POP PUSH2 0x289 PUSH1 0x4 DUP1 CALLDATASIZE SUB DUP2 ADD SWAP1 PUSH2 0x284 SWAP2 SWAP1 PUSH2 0x14DB JUMP JUMPDEST PUSH2 0xDBF JUMP JUMPDEST PUSH1 0x40 MLOAD PUSH2 0x296 SWAP2 SWAP1 PUSH2 0x1843 JUMP JUMPDEST PUSH1 0x40 MLOAD DUP1 SWAP2 SUB SWAP1 RETURN JUMPDEST CALLVALUE DUP1 ISZERO PUSH2 0x2AB JUMPI PUSH1 0x0 DUP1 REVERT JUMPDEST POP PUSH2 0x2B4 PUSH2 0xE29 JUMP JUMPDEST PUSH1 0x40 MLOAD PUSH2 0x2C1 SWAP2 SWAP1 PUSH2 0x185E JUMP JUMPDEST PUSH1 0x40 MLOAD DUP1 SWAP2 SUB SWAP1 RETURN JUMPDEST CALLVALUE DUP1 ISZERO PUSH2 0x2D6 JUMPI PUSH1 0x0 DUP1 REVERT JUMPDEST POP PUSH2 0x2F1 PUSH1 0x4 DUP1 CALLDATASIZE SUB DUP2 ADD SWAP1 PUSH2 0x2EC SWAP2 SWAP1 PUSH2 0x14B2 JUMP JUMPDEST PUSH2 0xE30 JUMP JUMPDEST STOP JUMPDEST CALLVALUE DUP1 ISZERO PUSH2 0x2FF JUMPI PUSH1 0x0 DUP1 REVERT JUMPDEST POP PUSH2 0x31A PUSH1 0x4 DUP1 CALLDATASIZE SUB DUP2 ADD SWAP1 PUSH2 0x315 SWAP2 SWAP1 PUSH2 0x14DB JUMP JUMPDEST PUSH2 0xE33 JUMP JUMPDEST STOP JUMPDEST CALLVALUE DUP1 ISZERO PUSH2 0x328 JUMPI PUSH1 0x0 DUP1 REVERT JUMPDEST POP PUSH2 0x331 PUSH2 0xE5C JUMP JUMPDEST PUSH1 0x40 MLOAD PUSH2 0x33E SWAP2 SWAP1 PUSH2 0x185E JUMP JUMPDEST PUSH1 0x40 MLOAD DUP1 SWAP2 SUB SWAP1 RETURN JUMPDEST PUSH1 0x0 PUSH32 0x7965DB0B00000000000000000000000000000000000000000000000000000000 PUSH28 0xFFFFFFFFFFFFFFFFFFFFFFFFFFFFFFFFFFFFFFFFFFFFFFFFFFFFFFFF NOT AND DUP3 PUSH28 0xFFFFFFFFFFFFFFFFFFFFFFFFFFFFFFFFFFFFFFFFFFFFFFFFFFFFFFFF NOT AND EQ DUP1 PUSH2 0x3BA JUMPI POP PUSH2 0x3B9 DUP3 PUSH2 0xE80 JUMP JUMPDEST JUMPDEST SWAP1 POP SWAP2 SWAP1 POP JUMP JUMPDEST PUSH1 0x0 PUSH2 0x3EF PUSH32 0xF940E4B85ABA930BCD75A9DB89D541DFB8CDF76A6578A626840B4E1F1CB32138 PUSH1 0x0 SHL PUSH2 0xE30 JUMP JUMPDEST PUSH2 0x41B PUSH32 0x1516AEB32666E8419541AA513FE5E187B6757C574B21979B5CB31FCA0EB00918 PUSH1 0x0 SHL PUSH2 0xE30 JUMP JUMPDEST PUSH2 0x447 PUSH32 0x7193AC124993BADFBE0E9D3B5A2E83F449CAFC7B111B5974545D5F2184CBC7F9 PUSH1 0x0 SHL PUSH2 0xE30 JUMP JUMPDEST SELFBALANCE SWAP1 POP SWAP1 JUMP JUMPDEST PUSH1 0x0 DUP1 PUSH1 0x0 DUP4 DUP2 MSTORE PUSH1 0x20 ADD SWAP1 DUP2 MSTORE PUSH1 0x20 ADD PUSH1 0x0 KECCAK256 PUSH1 0x1 ADD SLOAD SWAP1 POP SWAP2 SWAP1 POP JUMP JUMPDEST PUSH2 0x475 DUP3 PUSH2 0x44D JUMP JUMPDEST PUSH2 0x486 DUP2 PUSH2 0x481 PUSH2 0xEEA JUMP JUMPDEST PUSH2 0xEF2 JUMP JUMPDEST PUSH2 0x490 DUP4 DUP4 PUSH2 0xF8F JUMP JUMPDEST POP POP POP JUMP JUMPDEST PUSH2 0x49D PUSH2 0xEEA JUMP JUMPDEST PUSH20 0xFFFFFFFFFFFFFFFFFFFFFFFFFFFFFFFFFFFFFFFF AND DUP2 PUSH20 0xFFFFFFFFFFFFFFFFFFFFFFFFFFFFFFFFFFFFFFFF AND EQ PUSH2 0x50A JUMPI PUSH1 0x40 MLOAD PUSH32 0x8C379A000000000000000000000000000000000000000000000000000000000 DUP2 MSTORE PUSH1 0x4 ADD PUSH2 0x501 SWAP1 PUSH2 0x191B JUMP JUMPDEST PUSH1 0x40 MLOAD DUP1 SWAP2 SUB SWAP1 REVERT JUMPDEST PUSH2 0x514 DUP3 DUP3 PUSH2 0x106F JUMP JUMPDEST POP POP JUMP JUMPDEST PUSH2 0x544 PUSH32 0xD3948F3F607F778891D56AD51E0128F8E6B7F81EC455D9E421B0BEC87E839889 PUSH1 0x0 SHL PUSH2 0xE30 JUMP JUMPDEST PUSH2 0x570 PUSH32 0xEECBCC592A072CFE50554294930E6142C730D6CF0C915A19682633EF81AFCAB PUSH1 0x0 SHL PUSH2 0xE30 JUMP JUMPDEST PUSH2 0x59C PUSH32 0x27B3638C048EC503644775686A5AEEC61DC631F0FEF44AB032966B480799F0C8 PUSH1 0x0 SHL PUSH2 0xE30 JUMP JUMPDEST PUSH1 0x0 PUSH1 0x2 SLOAD TIMESTAMP PUSH2 0x5AC SWAP2 SWAP1 PUSH2 0x1A2D JUMP JUMPDEST SWAP1 POP PUSH2 0x5DA PUSH32 0x20C3E1940A623450A7D99BA90A1A4E0CFCC2E3E46F95CE48C77064DACDD57281 PUSH1 0x0 SHL PUSH2 0xE30 JUMP JUMPDEST PUSH2 0x606 PUSH32 0xFCD60B620AA50E073F0A3599F69F0CD8EA3650EF4331410C11FEADD4DE231969 PUSH1 0x0 SHL PUSH2 0xE30 JUMP JUMPDEST PUSH2 0x630 PUSH32 0xCF2B1209506B76F140FB1BC5FE66D6E42627C4B9703A951D65552F50F14C9EE7 CALLER PUSH2 0xDBF JUMP JUMPDEST ISZERO PUSH2 0x8ED JUMPI PUSH2 0x661 PUSH32 0x9FF8371ADDD979D48CAE2EC33ACA4A5CDBB72E1AE909E9B56D60892E5C3D86B6 PUSH1 0x0 SHL PUSH2 0xE30 JUMP JUMPDEST PUSH2 0x68D PUSH32 0xA9E2F6C6144B16721713B36ECAE4FBF58041AEED490D77C0A5C968EFD0CDC9C0 PUSH1 0x0 SHL PUSH2 0xE30 JUMP JUMPDEST PUSH2 0x6B9 PUSH32 0x7BEBF1A378C1B4E494A4607A1239B25CE82CEC21D6C79FE1827B1ECBFEDF8B88 PUSH1 0x0 SHL PUSH2 0xE30 JUMP JUMPDEST PUSH2 0x6E5 PUSH32 0xB65F2F93D9C6955D38B5A260B437C35AA27AB48BC2E5365DF355ECF92C627EAD PUSH1 0x0 SHL PUSH2 0xE30 JUMP JUMPDEST PUSH1 0x0 SELFBALANCE GT PUSH2 0x728 JUMPI PUSH1 0x40 MLOAD PUSH32 0x8C379A000000000000000000000000000000000000000000000000000000000 DUP2 MSTORE PUSH1 0x4 ADD PUSH2 0x71F SWAP1 PUSH2 0x18BB JUMP JUMPDEST PUSH1 0x40 MLOAD DUP1 SWAP2 SUB SWAP1 REVERT JUMPDEST PUSH2 0x754 PUSH32 0xEA2EAF16508DE3EEF011A3CB1B54842CEF2C0118CFC20440D07F1716FCE387C3 PUSH1 0x0 SHL PUSH2 0xE30 JUMP JUMPDEST PUSH2 0x780 PUSH32 0x353530825F6118B2876104B223F158C71D7D5EE2340CFB936670CD8141D476C1 PUSH1 0x0 SHL PUSH2 0xE30 JUMP JUMPDEST PUSH2 0x7AC PUSH32 0x8BA2E382066F9DD6559076CF5A646DDC0D4AFD649476BC94052BBF102E60B6CF PUSH1 0x0 SHL PUSH2 0xE30 JUMP JUMPDEST PUSH2 0x7D8 PUSH32 0x83BD498E29B8D845BF410200CFD1119D83E41BA66D8D7CFA6AAAF2DD8ACE3D3A PUSH1 0x0 SHL PUSH2 0xE30 JUMP JUMPDEST PUSH1 0x1 SLOAD DUP2 LT ISZERO PUSH2 0x81D JUMPI PUSH1 0x40 MLOAD PUSH32 0x8C379A000000000000000000000000000000000000000000000000000000000 DUP2 MSTORE PUSH1 0x4 ADD PUSH2 0x814 SWAP1 PUSH2 0x18FB JUMP JUMPDEST PUSH1 0x40 MLOAD DUP1 SWAP2 SUB SWAP1 REVERT JUMPDEST PUSH2 0x849 PUSH32 0x1ACDA2D904DD09DB6550FC6FC228D84F07A1BF9773C21355D7619B98AE5C786A PUSH1 0x0 SHL PUSH2 0xE30 JUMP JUMPDEST PUSH2 0x875 PUSH32 0xB692D5E694AB31F8CF4E1DDB7685FDA7E9D77586253BC49B1F5DEEE61742CBDB PUSH1 0x0 SHL PUSH2 0xE30 JUMP JUMPDEST PUSH2 0x8A1 PUSH32 0x5BED96BD93360CDEA47D16872522A9EF4FF8ED765BF46668709D38C5D4C3AE1E PUSH1 0x0 SHL PUSH2 0xE30 JUMP JUMPDEST CALLER PUSH20 0xFFFFFFFFFFFFFFFFFFFFFFFFFFFFFFFFFFFFFFFF AND PUSH2 0x8FC SELFBALANCE SWAP1 DUP2 ISZERO MUL SWAP1 PUSH1 0x40 MLOAD PUSH1 0x0 PUSH1 0x40 MLOAD DUP1 DUP4 SUB DUP2 DUP6 DUP9 DUP9 CALL SWAP4 POP POP POP POP ISZERO DUP1 ISZERO PUSH2 0x8E7 JUMPI RETURNDATASIZE PUSH1 0x0 DUP1 RETURNDATACOPY RETURNDATASIZE PUSH1 0x0 REVERT JUMPDEST POP PUSH2 0xBA5 JUMP JUMPDEST PUSH2 0x919 PUSH32 0x1CB0293473E6AB5C4F3A511687E8BDB4E3CCFC46572419F6B8B9F908FAC7288D PUSH1 0x0 SHL PUSH2 0xE30 JUMP JUMPDEST PUSH2 0x945 PUSH32 0x18D700B0427C61AA1F94DAFE07521F8CE2946D1917321FE866D16F8B477827C0 PUSH1 0x0 SHL PUSH2 0xE30 JUMP JUMPDEST PUSH2 0x96F PUSH32 0x94201143CC0A32610F14F8F185EBB23E4CA60F1758E49668647D0879B1E81F0B CALLER PUSH2 0xDBF JUMP JUMPDEST ISZERO PUSH2 0xB77 JUMPI PUSH2 0x9A0 PUSH32 0x564648632762B164CC7112F31B30371357880B50D903333E2BC08F6398A41417 PUSH1 0x0 SHL PUSH2 0xE30 JUMP JUMPDEST PUSH2 0x9CC PUSH32 0xFF7A87F0401D996C63BDCA2413C2869B27152961D9C59F6B730131E8F0B9337D PUSH1 0x0 SHL PUSH2 0xE30 JUMP JUMPDEST PUSH2 0x9F8 PUSH32 0x34584C10C309EC55C278942C613FF96A93DC7F39CFE965B13627055DFB4EB42F PUSH1 0x0 SHL PUSH2 0xE30 JUMP JUMPDEST PUSH2 0xA24 PUSH32 0xF58416594E253A011E4E87D6E91084E8B3A0974E7E80D44EC90C41863BD735E0 PUSH1 0x0 SHL PUSH2 0xE30 JUMP JUMPDEST PUSH1 0x1 SLOAD DUP2 LT PUSH2 0xA68 JUMPI PUSH1 0x40 MLOAD PUSH32 0x8C379A000000000000000000000000000000000000000000000000000000000 DUP2 MSTORE PUSH1 0x4 ADD PUSH2 0xA5F SWAP1 PUSH2 0x18DB JUMP JUMPDEST PUSH1 0x40 MLOAD DUP1 SWAP2 SUB SWAP1 REVERT JUMPDEST PUSH2 0xA94 PUSH32 0xCC922F9768B0154405171CABA1FC588AF0442B7CDE4B427BD284E6054C5366C0 PUSH1 0x0 SHL PUSH2 0xE30 JUMP JUMPDEST PUSH2 0xAC0 PUSH32 0x5534ACCF0F29B30A3371DE7003A0BD6926DE7FF01F004042C1396F697AD3B7F PUSH1 0x0 SHL PUSH2 0xE30 JUMP JUMPDEST PUSH2 0xAEC PUSH32 0xF993779E2A3AE320440D1217D66EE65A213D1210340834CDB80597B5644344EE PUSH1 0x0 SHL PUSH2 0xE30 JUMP JUMPDEST CALLER PUSH20 0xFFFFFFFFFFFFFFFFFFFFFFFFFFFFFFFFFFFFFFFF AND PUSH2 0x8FC PUSH1 0x3 PUSH1 0x0 CALLER PUSH20 0xFFFFFFFFFFFFFFFFFFFFFFFFFFFFFFFFFFFFFFFF AND PUSH20 0xFFFFFFFFFFFFFFFFFFFFFFFFFFFFFFFFFFFFFFFF AND DUP2 MSTORE PUSH1 0x20 ADD SWAP1 DUP2 MSTORE PUSH1 0x20 ADD PUSH1 0x0 KECCAK256 SLOAD SWAP1 DUP2 ISZERO MUL SWAP1 PUSH1 0x40 MLOAD PUSH1 0x0 PUSH1 0x40 MLOAD DUP1 DUP4 SUB DUP2 DUP6 DUP9 DUP9 CALL SWAP4 POP POP POP POP ISZERO DUP1 ISZERO PUSH2 0xB71 JUMPI RETURNDATASIZE PUSH1 0x0 DUP1 RETURNDATACOPY RETURNDATASIZE PUSH1 0x0 REVERT JUMPDEST POP PUSH2 0xBA4 JUMP JUMPDEST PUSH2 0xBA3 PUSH32 0x1644BF14B16B8FB24B8D47CDBBF86ED7E6FE318587DA3FDD106AEA474ADDAD2 PUSH1 0x0 SHL PUSH2 0xE30 JUMP JUMPDEST JUMPDEST JUMPDEST POP JUMP JUMPDEST PUSH32 0x94201143CC0A32610F14F8F185EBB23E4CA60F1758E49668647D0879B1E81F0B DUP2 JUMP JUMPDEST PUSH2 0xBF8 PUSH32 0x1C4DC149F636B2CAAC596833199EB0B5B9CD477140E9CC300D6D76EC34C06B1F PUSH1 0x0 SHL PUSH2 0xE30 JUMP JUMPDEST PUSH2 0xC24 PUSH32 0x53FB0D1C98F4DE871D949A71B6E70398736E47F35FFE18DA3AF9FE48295FE3F6 PUSH1 0x0 SHL PUSH2 0xE30 JUMP JUMPDEST PUSH2 0xC50 PUSH32 0x1E522C1653F2106EA7B3F50885488C51EF83905F1E554AB22780545ED27969C0 PUSH1 0x0 SHL PUSH2 0xE30 JUMP JUMPDEST PUSH2 0xC7A PUSH32 0xCF2B1209506B76F140FB1BC5FE66D6E42627C4B9703A951D65552F50F14C9EE7 CALLER PUSH2 0xF8F JUMP JUMPDEST PUSH2 0xCA6 PUSH32 0x7DEECB4F316C2897BD8E67E8A3F36DBC2AA603FD55DB92065F07C427DDA0930A PUSH1 0x0 SHL PUSH2 0xE30 JUMP JUMPDEST PUSH2 0xCD2 PUSH32 0x7D36F81D66657BEE4F373EF1E101A1DA2747BA760266885E3E6E83928FE6DFE8 PUSH1 0x0 SHL PUSH2 0xE30 JUMP JUMPDEST PUSH2 0xCFC PUSH32 0x94201143CC0A32610F14F8F185EBB23E4CA60F1758E49668647D0879B1E81F0B DUP3 PUSH2 0xF8F JUMP JUMPDEST PUSH2 0xD28 PUSH32 0xC376BB8EA45B8A5F85773DF752545E7C53715693F01240524A7DF007E0186EA5 PUSH1 0x0 SHL PUSH2 0xE30 JUMP JUMPDEST PUSH2 0xD54 PUSH32 0x60FDC01C3A7504E8BD27CAAB36187818BE87ED5EEA3F6F2633A3B5C5ED1E56D2 PUSH1 0x0 SHL PUSH2 0xE30 JUMP JUMPDEST CALLVALUE PUSH1 0x3 PUSH1 0x0 DUP4 PUSH20 0xFFFFFFFFFFFFFFFFFFFFFFFFFFFFFFFFFFFFFFFF AND PUSH20 0xFFFFFFFFFFFFFFFFFFFFFFFFFFFFFFFFFFFFFFFF AND DUP2 MSTORE PUSH1 0x20 ADD SWAP1 DUP2 MSTORE PUSH1 0x20 ADD PUSH1 0x0 KECCAK256 DUP2 SWAP1 SSTORE POP POP JUMP JUMPDEST PUSH32 0xD0D9C70B33DD60AFACB55D8FF719509ECA8DE63778217873FAC25C4D1F90353D DUP2 JUMP JUMPDEST PUSH1 0x0 DUP1 PUSH1 0x0 DUP5 DUP2 MSTORE PUSH1 0x20 ADD SWAP1 DUP2 MSTORE PUSH1 0x20 ADD PUSH1 0x0 KECCAK256 PUSH1 0x0 ADD PUSH1 0x0 DUP4 PUSH20 0xFFFFFFFFFFFFFFFFFFFFFFFFFFFFFFFFFFFFFFFF AND PUSH20 0xFFFFFFFFFFFFFFFFFFFFFFFFFFFFFFFFFFFFFFFF AND DUP2 MSTORE PUSH1 0x20 ADD SWAP1 DUP2 MSTORE PUSH1 0x20 ADD PUSH1 0x0 KECCAK256 PUSH1 0x0 SWAP1 SLOAD SWAP1 PUSH2 0x100 EXP SWAP1 DIV PUSH1 0xFF AND SWAP1 POP SWAP3 SWAP2 POP POP JUMP JUMPDEST PUSH1 0x0 DUP1 SHL DUP2 JUMP JUMPDEST POP JUMP JUMPDEST PUSH2 0xE3C DUP3 PUSH2 0x44D JUMP JUMPDEST PUSH2 0xE4D DUP2 PUSH2 0xE48 PUSH2 0xEEA JUMP JUMPDEST PUSH2 0xEF2 JUMP JUMPDEST PUSH2 0xE57 DUP4 DUP4 PUSH2 0x106F JUMP JUMPDEST POP POP POP JUMP JUMPDEST PUSH32 0xCF2B1209506B76F140FB1BC5FE66D6E42627C4B9703A951D65552F50F14C9EE7 DUP2 JUMP JUMPDEST PUSH1 0x0 PUSH32 0x1FFC9A700000000000000000000000000000000000000000000000000000000 PUSH28 0xFFFFFFFFFFFFFFFFFFFFFFFFFFFFFFFFFFFFFFFFFFFFFFFFFFFFFFFF NOT AND DUP3 PUSH28 0xFFFFFFFFFFFFFFFFFFFFFFFFFFFFFFFFFFFFFFFFFFFFFFFFFFFFFFFF NOT AND EQ SWAP1 POP SWAP2 SWAP1 POP JUMP JUMPDEST PUSH1 0x0 CALLER SWAP1 POP SWAP1 JUMP JUMPDEST PUSH2 0xEFC DUP3 DUP3 PUSH2 0xDBF JUMP JUMPDEST PUSH2 0xF8B JUMPI PUSH2 0xF21 DUP2 PUSH20 0xFFFFFFFFFFFFFFFFFFFFFFFFFFFFFFFFFFFFFFFF AND PUSH1 0x14 PUSH2 0x1150 JUMP JUMPDEST PUSH2 0xF2F DUP4 PUSH1 0x0 SHR PUSH1 0x20 PUSH2 0x1150 JUMP JUMPDEST PUSH1 0x40 MLOAD PUSH1 0x20 ADD PUSH2 0xF40 SWAP3 SWAP2 SWAP1 PUSH2 0x1809 JUMP JUMPDEST PUSH1 0x40 MLOAD PUSH1 0x20 DUP2 DUP4 SUB SUB DUP2 MSTORE SWAP1 PUSH1 0x40 MSTORE PUSH1 0x40 MLOAD PUSH32 0x8C379A000000000000000000000000000000000000000000000000000000000 DUP2 MSTORE PUSH1 0x4 ADD PUSH2 0xF82 SWAP2 SWAP1 PUSH2 0x1879 JUMP JUMPDEST PUSH1 0x40 MLOAD DUP1 SWAP2 SUB SWAP1 REVERT JUMPDEST POP POP JUMP JUMPDEST PUSH2 0xF99 DUP3 DUP3 PUSH2 0xDBF JUMP JUMPDEST PUSH2 0x106B JUMPI PUSH1 0x1 PUSH1 0x0 DUP1 DUP5 DUP2 MSTORE PUSH1 0x20 ADD SWAP1 DUP2 MSTORE PUSH1 0x20 ADD PUSH1 0x0 KECCAK256 PUSH1 0x0 ADD PUSH1 0x0 DUP4 PUSH20 0xFFFFFFFFFFFFFFFFFFFFFFFFFFFFFFFFFFFFFFFF AND PUSH20 0xFFFFFFFFFFFFFFFFFFFFFFFFFFFFFFFFFFFFFFFF AND DUP2 MSTORE PUSH1 0x20 ADD SWAP1 DUP2 MSTORE PUSH1 0x20 ADD PUSH1 0x0 KECCAK256 PUSH1 0x0 PUSH2 0x100 EXP DUP2 SLOAD DUP2 PUSH1 0xFF MUL NOT AND SWAP1 DUP4 ISZERO ISZERO MUL OR SWAP1 SSTORE POP PUSH2 0x1010 PUSH2 0xEEA JUMP JUMPDEST PUSH20 0xFFFFFFFFFFFFFFFFFFFFFFFFFFFFFFFFFFFFFFFF AND DUP2 PUSH20 0xFFFFFFFFFFFFFFFFFFFFFFFFFFFFFFFFFFFFFFFF AND DUP4 PUSH32 0x2F8788117E7EFF1D82E926EC794901D17C78024A50270940304540A733656F0D PUSH1 0x40 MLOAD PUSH1 0x40 MLOAD DUP1 SWAP2 SUB SWAP1 LOG4 JUMPDEST POP POP JUMP JUMPDEST PUSH2 0x1079 DUP3 DUP3 PUSH2 0xDBF JUMP JUMPDEST ISZERO PUSH2 0x114C JUMPI PUSH1 0x0 DUP1 PUSH1 0x0 DUP5 DUP2 MSTORE PUSH1 0x20 ADD SWAP1 DUP2 MSTORE PUSH1 0x20 ADD PUSH1 0x0 KECCAK256 PUSH1 0x0 ADD PUSH1 0x0 DUP4 PUSH20 0xFFFFFFFFFFFFFFFFFFFFFFFFFFFFFFFFFFFFFFFF AND PUSH20 0xFFFFFFFFFFFFFFFFFFFFFFFFFFFFFFFFFFFFFFFF AND DUP2 MSTORE PUSH1 0x20 ADD SWAP1 DUP2 MSTORE PUSH1 0x20 ADD PUSH1 0x0 KECCAK256 PUSH1 0x0 PUSH2 0x100 EXP DUP2 SLOAD DUP2 PUSH1 0xFF MUL NOT AND SWAP1 DUP4 ISZERO ISZERO MUL OR SWAP1 SSTORE POP PUSH2 0x10F1 PUSH2 0xEEA JUMP JUMPDEST PUSH20 0xFFFFFFFFFFFFFFFFFFFFFFFFFFFFFFFFFFFFFFFF AND DUP2 PUSH20 0xFFFFFFFFFFFFFFFFFFFFFFFFFFFFFFFFFFFFFFFF AND DUP4 PUSH32 0xF6391F5C32D9C69D2A47EA670B442974B53935D1EDC7FD64EB21E047A839171B PUSH1 0x40 MLOAD PUSH1 0x40 MLOAD DUP1 SWAP2 SUB SWAP1 LOG4 JUMPDEST POP POP JUMP JUMPDEST PUSH1 0x60 PUSH1 0x0 PUSH1 0x2 DUP4 PUSH1 0x2 PUSH2 0x1163 SWAP2 SWAP1 PUSH2 0x19D3 JUMP JUMPDEST PUSH2 0x116D SWAP2 SWAP1 PUSH2 0x197D JUMP JUMPDEST PUSH8 0xFFFFFFFFFFFFFFFF DUP2 GT ISZERO PUSH2 0x11AC JUMPI PUSH32 0x4E487B7100000000000000000000000000000000000000000000000000000000 PUSH1 0x0 MSTORE PUSH1 0x41 PUSH1 0x4 MSTORE PUSH1 0x24 PUSH1 0x0 REVERT JUMPDEST PUSH1 0x40 MLOAD SWAP1 DUP1 DUP3 MSTORE DUP1 PUSH1 0x1F ADD PUSH1 0x1F NOT AND PUSH1 0x20 ADD DUP3 ADD PUSH1 0x40 MSTORE DUP1 ISZERO PUSH2 0x11DE JUMPI DUP2 PUSH1 0x20 ADD PUSH1 0x1 DUP3 MUL DUP1 CALLDATASIZE DUP4 CALLDATACOPY DUP1 DUP3 ADD SWAP2 POP POP SWAP1 POP JUMPDEST POP SWAP1 POP PUSH32 0x3000000000000000000000000000000000000000000000000000000000000000 DUP2 PUSH1 0x0 DUP2 MLOAD DUP2 LT PUSH2 0x123C JUMPI PUSH32 0x4E487B7100000000000000000000000000000000000000000000000000000000 PUSH1 0x0 MSTORE PUSH1 0x32 PUSH1 0x4 MSTORE PUSH1 0x24 PUSH1 0x0 REVERT JUMPDEST PUSH1 0x20 ADD ADD SWAP1 PUSH31 0xFFFFFFFFFFFFFFFFFFFFFFFFFFFFFFFFFFFFFFFFFFFFFFFFFFFFFFFFFFFFFF NOT AND SWAP1 DUP2 PUSH1 0x0 BYTE SWAP1 MSTORE8 POP PUSH32 0x7800000000000000000000000000000000000000000000000000000000000000 DUP2 PUSH1 0x1 DUP2 MLOAD DUP2 LT PUSH2 0x12C6 JUMPI PUSH32 0x4E487B7100000000000000000000000000000000000000000000000000000000 PUSH1 0x0 MSTORE PUSH1 0x32 PUSH1 0x4 MSTORE PUSH1 0x24 PUSH1 0x0 REVERT JUMPDEST PUSH1 0x20 ADD ADD SWAP1 PUSH31 0xFFFFFFFFFFFFFFFFFFFFFFFFFFFFFFFFFFFFFFFFFFFFFFFFFFFFFFFFFFFFFF NOT AND SWAP1 DUP2 PUSH1 0x0 BYTE SWAP1 MSTORE8 POP PUSH1 0x0 PUSH1 0x1 DUP5 PUSH1 0x2 PUSH2 0x1306 SWAP2 SWAP1 PUSH2 0x19D3 JUMP JUMPDEST PUSH2 0x1310 SWAP2 SWAP1 PUSH2 0x197D JUMP JUMPDEST SWAP1 POP JUMPDEST PUSH1 0x1 DUP2 GT ISZERO PUSH2 0x13FC JUMPI PUSH32 0x3031323334353637383961626364656600000000000000000000000000000000 PUSH1 0xF DUP7 AND PUSH1 0x10 DUP2 LT PUSH2 0x1378 JUMPI PUSH32 0x4E487B7100000000000000000000000000000000000000000000000000000000 PUSH1 0x0 MSTORE PUSH1 0x32 PUSH1 0x4 MSTORE PUSH1 0x24 PUSH1 0x0 REVERT JUMPDEST BYTE PUSH1 0xF8 SHL DUP3 DUP3 DUP2 MLOAD DUP2 LT PUSH2 0x13B5 JUMPI PUSH32 0x4E487B7100000000000000000000000000000000000000000000000000000000 PUSH1 0x0 MSTORE PUSH1 0x32 PUSH1 0x4 MSTORE PUSH1 0x24 PUSH1 0x0 REVERT JUMPDEST PUSH1 0x20 ADD ADD SWAP1 PUSH31 0xFFFFFFFFFFFFFFFFFFFFFFFFFFFFFFFFFFFFFFFFFFFFFFFFFFFFFFFFFFFFFF NOT AND SWAP1 DUP2 PUSH1 0x0 BYTE SWAP1 MSTORE8 POP PUSH1 0x4 DUP6 SWAP1 SHR SWAP5 POP DUP1 PUSH2 0x13F5 SWAP1 PUSH2 0x1B12 JUMP JUMPDEST SWAP1 POP PUSH2 0x1313 JUMP JUMPDEST POP PUSH1 0x0 DUP5 EQ PUSH2 0x1440 JUMPI PUSH1 0x40 MLOAD PUSH32 0x8C379A000000000000000000000000000000000000000000000000000000000 DUP2 MSTORE PUSH1 0x4 ADD PUSH2 0x1437 SWAP1 PUSH2 0x189B JUMP JUMPDEST PUSH1 0x40 MLOAD DUP1 SWAP2 SUB SWAP1 REVERT JUMPDEST DUP1 SWAP2 POP POP SWAP3 SWAP2 POP POP JUMP JUMPDEST PUSH1 0x0 DUP2 CALLDATALOAD SWAP1 POP PUSH2 0x1459 DUP2 PUSH2 0x1B7C JUMP JUMPDEST SWAP3 SWAP2 POP POP JUMP JUMPDEST PUSH1 0x0 DUP2 CALLDATALOAD SWAP1 POP PUSH2 0x146E DUP2 PUSH2 0x1B93 JUMP JUMPDEST SWAP3 SWAP2 POP POP JUMP JUMPDEST PUSH1 0x0 DUP2 CALLDATALOAD SWAP1 POP PUSH2 0x1483 DUP2 PUSH2 0x1BAA JUMP JUMPDEST SWAP3 SWAP2 POP POP JUMP JUMPDEST PUSH1 0x0 PUSH1 0x20 DUP3 DUP5 SUB SLT ISZERO PUSH2 0x149B JUMPI PUSH1 0x0 DUP1 REVERT JUMPDEST PUSH1 0x0 PUSH2 0x14A9 DUP5 DUP3 DUP6 ADD PUSH2 0x144A JUMP JUMPDEST SWAP2 POP POP SWAP3 SWAP2 POP POP JUMP JUMPDEST PUSH1 0x0 PUSH1 0x20 DUP3 DUP5 SUB SLT ISZERO PUSH2 0x14C4 JUMPI PUSH1 0x0 DUP1 REVERT JUMPDEST PUSH1 0x0 PUSH2 0x14D2 DUP5 DUP3 DUP6 ADD PUSH2 0x145F JUMP JUMPDEST SWAP2 POP POP SWAP3 SWAP2 POP POP JUMP JUMPDEST PUSH1 0x0 DUP1 PUSH1 0x40 DUP4 DUP6 SUB SLT ISZERO PUSH2 0x14EE JUMPI PUSH1 0x0 DUP1 REVERT JUMPDEST PUSH1 0x0 PUSH2 0x14FC DUP6 DUP3 DUP7 ADD PUSH2 0x145F JUMP JUMPDEST SWAP3 POP POP PUSH1 0x20 PUSH2 0x150D DUP6 DUP3 DUP7 ADD PUSH2 0x144A JUMP JUMPDEST SWAP2 POP POP SWAP3 POP SWAP3 SWAP1 POP JUMP JUMPDEST PUSH1 0x0 PUSH1 0x20 DUP3 DUP5 SUB SLT ISZERO PUSH2 0x1529 JUMPI PUSH1 0x0 DUP1 REVERT JUMPDEST PUSH1 0x0 PUSH2 0x1537 DUP5 DUP3 DUP6 ADD PUSH2 0x1474 JUMP JUMPDEST SWAP2 POP POP SWAP3 SWAP2 POP POP JUMP JUMPDEST PUSH2 0x1549 DUP2 PUSH2 0x1A73 JUMP JUMPDEST DUP3 MSTORE POP POP JUMP JUMPDEST PUSH2 0x1558 DUP2 PUSH2 0x1A7F JUMP JUMPDEST DUP3 MSTORE POP POP JUMP JUMPDEST PUSH1 0x0 PUSH2 0x1569 DUP3 PUSH2 0x1956 JUMP JUMPDEST PUSH2 0x1573 DUP2 DUP6 PUSH2 0x1961 JUMP JUMPDEST SWAP4 POP PUSH2 0x1583 DUP2 DUP6 PUSH1 0x20 DUP7 ADD PUSH2 0x1ADF JUMP JUMPDEST PUSH2 0x158C DUP2 PUSH2 0x1B6B JUMP JUMPDEST DUP5 ADD SWAP2 POP POP SWAP3 SWAP2 POP POP JUMP JUMPDEST PUSH1 0x0 PUSH2 0x15A2 DUP3 PUSH2 0x1956 JUMP JUMPDEST PUSH2 0x15AC DUP2 DUP6 PUSH2 0x1972 JUMP JUMPDEST SWAP4 POP PUSH2 0x15BC DUP2 DUP6 PUSH1 0x20 DUP7 ADD PUSH2 0x1ADF JUMP JUMPDEST DUP1 DUP5 ADD SWAP2 POP POP SWAP3 SWAP2 POP POP JUMP JUMPDEST PUSH1 0x0 PUSH2 0x15D5 PUSH1 0x20 DUP4 PUSH2 0x1961 JUMP JUMPDEST SWAP2 POP PUSH32 0x537472696E67733A20686578206C656E67746820696E73756666696369656E74 PUSH1 0x0 DUP4 ADD MSTORE PUSH1 0x20 DUP3 ADD SWAP1 POP SWAP2 SWAP1 POP JUMP JUMPDEST PUSH1 0x0 PUSH2 0x1615 PUSH1 0x12 DUP4 PUSH2 0x1961 JUMP JUMPDEST SWAP2 POP PUSH32 0x6E6F2066756E647320617661696C61626C650000000000000000000000000000 PUSH1 0x0 DUP4 ADD MSTORE PUSH1 0x20 DUP3 ADD SWAP1 POP SWAP2 SWAP1 POP JUMP JUMPDEST PUSH1 0x0 PUSH2 0x1655 PUSH1 0x30 DUP4 PUSH2 0x1961 JUMP JUMPDEST SWAP2 POP PUSH32 0x74696D652069732075702C207468652066756E6473206172652072657475726E PUSH1 0x0 DUP4 ADD MSTORE PUSH32 0x656420746F207468652073656E64657200000000000000000000000000000000 PUSH1 0x20 DUP4 ADD MSTORE PUSH1 0x40 DUP3 ADD SWAP1 POP SWAP2 SWAP1 POP JUMP JUMPDEST PUSH1 0x0 PUSH2 0x16BB PUSH1 0x17 DUP4 PUSH2 0x1972 JUMP JUMPDEST SWAP2 POP PUSH32 0x416363657373436F6E74726F6C3A206163636F756E7420000000000000000000 PUSH1 0x0 DUP4 ADD MSTORE PUSH1 0x17 DUP3 ADD SWAP1 POP SWAP2 SWAP1 POP JUMP JUMPDEST PUSH1 0x0 PUSH2 0x16FB PUSH1 0x25 DUP4 PUSH2 0x1961 JUMP JUMPDEST SWAP2 POP PUSH32 0x796F752063616E742067657420726566756E64206265666F72652074696D6520 PUSH1 0x0 DUP4 ADD MSTORE PUSH32 0x6C696D6974000000000000000000000000000000000000000000000000000000 PUSH1 0x20 DUP4 ADD MSTORE PUSH1 0x40 DUP3 ADD SWAP1 POP SWAP2 SWAP1 POP JUMP JUMPDEST PUSH1 0x0 PUSH2 0x1761 PUSH1 0x11 DUP4 PUSH2 0x1972 JUMP JUMPDEST SWAP2 POP PUSH32 0x206973206D697373696E6720726F6C6520000000000000000000000000000000 PUSH1 0x0 DUP4 ADD MSTORE PUSH1 0x11 DUP3 ADD SWAP1 POP SWAP2 SWAP1 POP JUMP JUMPDEST PUSH1 0x0 PUSH2 0x17A1 PUSH1 0x2F DUP4 PUSH2 0x1961 JUMP JUMPDEST SWAP2 POP PUSH32 0x416363657373436F6E74726F6C3A2063616E206F6E6C792072656E6F756E6365 PUSH1 0x0 DUP4 ADD MSTORE PUSH32 0x20726F6C657320666F722073656C660000000000000000000000000000000000 PUSH1 0x20 DUP4 ADD MSTORE PUSH1 0x40 DUP3 ADD SWAP1 POP SWAP2 SWAP1 POP JUMP JUMPDEST PUSH2 0x1803 DUP2 PUSH2 0x1AD5 JUMP JUMPDEST DUP3 MSTORE POP POP JUMP JUMPDEST PUSH1 0x0 PUSH2 0x1814 DUP3 PUSH2 0x16AE JUMP JUMPDEST SWAP2 POP PUSH2 0x1820 DUP3 DUP6 PUSH2 0x1597 JUMP JUMPDEST SWAP2 POP PUSH2 0x182B DUP3 PUSH2 0x1754 JUMP JUMPDEST SWAP2 POP PUSH2 0x1837 DUP3 DUP5 PUSH2 0x1597 JUMP JUMPDEST SWAP2 POP DUP2 SWAP1 POP SWAP4 SWAP3 POP POP POP JUMP JUMPDEST PUSH1 0x0 PUSH1 0x20 DUP3 ADD SWAP1 POP PUSH2 0x1858 PUSH1 0x0 DUP4 ADD DUP5 PUSH2 0x1540 JUMP JUMPDEST SWAP3 SWAP2 POP POP JUMP JUMPDEST PUSH1 0x0 PUSH1 0x20 DUP3 ADD SWAP1 POP PUSH2 0x1873 PUSH1 0x0 DUP4 ADD DUP5 PUSH2 0x154F JUMP JUMPDEST SWAP3 SWAP2 POP POP JUMP JUMPDEST PUSH1 0x0 PUSH1 0x20 DUP3 ADD SWAP1 POP DUP2 DUP2 SUB PUSH1 0x0 DUP4 ADD MSTORE PUSH2 0x1893 DUP2 DUP5 PUSH2 0x155E JUMP JUMPDEST SWAP1 POP SWAP3 SWAP2 POP POP JUMP JUMPDEST PUSH1 0x0 PUSH1 0x20 DUP3 ADD SWAP1 POP DUP2 DUP2 SUB PUSH1 0x0 DUP4 ADD MSTORE PUSH2 0x18B4 DUP2 PUSH2 0x15C8 JUMP JUMPDEST SWAP1 POP SWAP2 SWAP1 POP JUMP JUMPDEST PUSH1 0x0 PUSH1 0x20 DUP3 ADD SWAP1 POP DUP2 DUP2 SUB PUSH1 0x0 DUP4 ADD MSTORE PUSH2 0x18D4 DUP2 PUSH2 0x1608 JUMP JUMPDEST SWAP1 POP SWAP2 SWAP1 POP JUMP JUMPDEST PUSH1 0x0 PUSH1 0x20 DUP3 ADD SWAP1 POP DUP2 DUP2 SUB PUSH1 0x0 DUP4 ADD MSTORE PUSH2 0x18F4 DUP2 PUSH2 0x1648 JUMP JUMPDEST SWAP1 POP SWAP2 SWAP1 POP JUMP JUMPDEST PUSH1 0x0 PUSH1 0x20 DUP3 ADD SWAP1 POP DUP2 DUP2 SUB PUSH1 0x0 DUP4 ADD MSTORE PUSH2 0x1914 DUP2 PUSH2 0x16EE JUMP JUMPDEST SWAP1 POP SWAP2 SWAP1 POP JUMP JUMPDEST PUSH1 0x0 PUSH1 0x20 DUP3 ADD SWAP1 POP DUP2 DUP2 SUB PUSH1 0x0 DUP4 ADD MSTORE PUSH2 0x1934 DUP2 PUSH2 0x1794 JUMP JUMPDEST SWAP1 POP SWAP2 SWAP1 POP JUMP JUMPDEST PUSH1 0x0 PUSH1 0x20 DUP3 ADD SWAP1 POP PUSH2 0x1950 PUSH1 0x0 DUP4 ADD DUP5 PUSH2 0x17FA JUMP JUMPDEST SWAP3 SWAP2 POP POP JUMP JUMPDEST PUSH1 0x0 DUP2 MLOAD SWAP1 POP SWAP2 SWAP1 POP JUMP JUMPDEST PUSH1 0x0 DUP3 DUP3 MSTORE PUSH1 0x20 DUP3 ADD SWAP1 POP SWAP3 SWAP2 POP POP JUMP JUMPDEST PUSH1 0x0 DUP2 SWAP1 POP SWAP3 SWAP2 POP POP JUMP JUMPDEST PUSH1 0x0 PUSH2 0x1988 DUP3 PUSH2 0x1AD5 JUMP JUMPDEST SWAP2 POP PUSH2 0x1993 DUP4 PUSH2 0x1AD5 JUMP JUMPDEST SWAP3 POP DUP3 PUSH32 0xFFFFFFFFFFFFFFFFFFFFFFFFFFFFFFFFFFFFFFFFFFFFFFFFFFFFFFFFFFFFFFFF SUB DUP3 GT ISZERO PUSH2 0x19C8 JUMPI PUSH2 0x19C7 PUSH2 0x1B3C JUMP JUMPDEST JUMPDEST DUP3 DUP3 ADD SWAP1 POP SWAP3 SWAP2 POP POP JUMP JUMPDEST PUSH1 0x0 PUSH2 0x19DE DUP3 PUSH2 0x1AD5 JUMP JUMPDEST SWAP2 POP PUSH2 0x19E9 DUP4 PUSH2 0x1AD5 JUMP JUMPDEST SWAP3 POP DUP2 PUSH32 0xFFFFFFFFFFFFFFFFFFFFFFFFFFFFFFFFFFFFFFFFFFFFFFFFFFFFFFFFFFFFFFFF DIV DUP4 GT DUP3 ISZERO ISZERO AND ISZERO PUSH2 0x1A22 JUMPI PUSH2 0x1A21 PUSH2 0x1B3C JUMP JUMPDEST JUMPDEST DUP3 DUP3 MUL SWAP1 POP SWAP3 SWAP2 POP POP JUMP JUMPDEST PUSH1 0x0 PUSH2 0x1A38 DUP3 PUSH2 0x1AD5 JUMP JUMPDEST SWAP2 POP PUSH2 0x1A43 DUP4 PUSH2 0x1AD5 JUMP JUMPDEST SWAP3 POP DUP3 DUP3 LT ISZERO PUSH2 0x1A56 JUMPI PUSH2 0x1A55 PUSH2 0x1B3C JUMP JUMPDEST JUMPDEST DUP3 DUP3 SUB SWAP1 POP SWAP3 SWAP2 POP POP JUMP JUMPDEST PUSH1 0x0 PUSH2 0x1A6C DUP3 PUSH2 0x1AB5 JUMP JUMPDEST SWAP1 POP SWAP2 SWAP1 POP JUMP JUMPDEST PUSH1 0x0 DUP2 ISZERO ISZERO SWAP1 POP SWAP2 SWAP1 POP JUMP JUMPDEST PUSH1 0x0 DUP2 SWAP1 POP SWAP2 SWAP1 POP JUMP JUMPDEST PUSH1 0x0 PUSH32 0xFFFFFFFF00000000000000000000000000000000000000000000000000000000 DUP3 AND SWAP1 POP SWAP2 SWAP1 POP JUMP JUMPDEST PUSH1 0x0 PUSH20 0xFFFFFFFFFFFFFFFFFFFFFFFFFFFFFFFFFFFFFFFF DUP3 AND SWAP1 POP SWAP2 SWAP1 POP JUMP JUMPDEST PUSH1 0x0 DUP2 SWAP1 POP SWAP2 SWAP1 POP JUMP JUMPDEST PUSH1 0x0 JUMPDEST DUP4 DUP2 LT ISZERO PUSH2 0x1AFD JUMPI DUP1 DUP3 ADD MLOAD DUP2 DUP5 ADD MSTORE PUSH1 0x20 DUP2 ADD SWAP1 POP PUSH2 0x1AE2 JUMP JUMPDEST DUP4 DUP2 GT ISZERO PUSH2 0x1B0C JUMPI PUSH1 0x0 DUP5 DUP5 ADD MSTORE JUMPDEST POP POP POP POP JUMP JUMPDEST PUSH1 0x0 PUSH2 0x1B1D DUP3 PUSH2 0x1AD5 JUMP JUMPDEST SWAP2 POP PUSH1 0x0 DUP3 EQ ISZERO PUSH2 0x1B31 JUMPI PUSH2 0x1B30 PUSH2 0x1B3C JUMP JUMPDEST JUMPDEST PUSH1 0x1 DUP3 SUB SWAP1 POP SWAP2 SWAP1 POP JUMP JUMPDEST PUSH32 0x4E487B7100000000000000000000000000000000000000000000000000000000 PUSH1 0x0 MSTORE PUSH1 0x11 PUSH1 0x4 MSTORE PUSH1 0x24 PUSH1 0x0 REVERT JUMPDEST PUSH1 0x0 PUSH1 0x1F NOT PUSH1 0x1F DUP4 ADD AND SWAP1 POP SWAP2 SWAP1 POP JUMP JUMPDEST PUSH2 0x1B85 DUP2 PUSH2 0x1A61 JUMP JUMPDEST DUP2 EQ PUSH2 0x1B90 JUMPI PUSH1 0x0 DUP1 REVERT JUMPDEST POP JUMP JUMPDEST PUSH2 0x1B9C DUP2 PUSH2 0x1A7F JUMP JUMPDEST DUP2 EQ PUSH2 0x1BA7 JUMPI PUSH1 0x0 DUP1 REVERT JUMPDEST POP JUMP JUMPDEST PUSH2 0x1BB3 DUP2 PUSH2 0x1A89 JUMP JUMPDEST DUP2 EQ PUSH2 0x1BBE JUMPI PUSH1 0x0 DUP1 REVERT JUMPDEST POP JUMP INVALID LOG2 PUSH5 0x6970667358 0x22 SLT KECCAK256 0xE7 SSTORE DUP6 0xB7 STOP XOR 0xB5 RETURNDATASIZE 0xEE 0xDC PUSH4 0xB4560EF9 MSTORE PUSH6 0xC1592B9828F5 DIV BLOCKHASH PUSH10 0xA750F2724CAB64736F6C PUSH4 0x43000800 STOP CALLER "
        },
        "methodIdentifiers": {
          "Agent()": "9068ed17",
          "DEFAULT_ADMIN_ROLE()": "a217fddf",
          "DepositeFor(address)": "7df4151e",
          "Receiver()": "7312c065",
          "Sender()": "eea96c57",
          "Withdraw()": "57ea89b6",
          "c_0x4a11fab0(bytes32)": "cc693304",
          "getBalance()": "12065fe0",
          "getRoleAdmin(bytes32)": "248a9ca3",
          "grantRole(bytes32,address)": "2f2ff15d",
          "hasRole(bytes32,address)": "91d14854",
          "renounceRole(bytes32,address)": "36568abe",
          "revokeRole(bytes32,address)": "d547741f",
          "supportsInterface(bytes4)": "01ffc9a7"
        }
      }
    }
  }
}