{
  "_format": "hh-sol-artifact-1",
  "contractName": "Escrow",
  "sourceName": "contracts/Escrow.sol",
  "abi": [
    {
      "inputs": [],
      "stateMutability": "nonpayable",
      "type": "constructor"
    },
    {
      "anonymous": false,
      "inputs": [
        {
          "indexed": true,
          "internalType": "bytes32",
          "name": "role",
          "type": "bytes32"
        },
        {
          "indexed": true,
          "internalType": "bytes32",
          "name": "previousAdminRole",
          "type": "bytes32"
        },
        {
          "indexed": true,
          "internalType": "bytes32",
          "name": "newAdminRole",
          "type": "bytes32"
        }
      ],
      "name": "RoleAdminChanged",
      "type": "event"
    },
    {
      "anonymous": false,
      "inputs": [
        {
          "indexed": true,
          "internalType": "bytes32",
          "name": "role",
          "type": "bytes32"
        },
        {
          "indexed": true,
          "internalType": "address",
          "name": "account",
          "type": "address"
        },
        {
          "indexed": true,
          "internalType": "address",
          "name": "sender",
          "type": "address"
        }
      ],
      "name": "RoleGranted",
      "type": "event"
    },
    {
      "anonymous": false,
      "inputs": [
        {
          "indexed": true,
          "internalType": "bytes32",
          "name": "role",
          "type": "bytes32"
        },
        {
          "indexed": true,
          "internalType": "address",
          "name": "account",
          "type": "address"
        },
        {
          "indexed": true,
          "internalType": "address",
          "name": "sender",
          "type": "address"
        }
      ],
      "name": "RoleRevoked",
      "type": "event"
    },
    {
      "inputs": [],
      "name": "Agent",
      "outputs": [
        {
          "internalType": "bytes32",
          "name": "",
          "type": "bytes32"
        }
      ],
      "stateMutability": "view",
      "type": "function"
    },
    {
      "inputs": [],
      "name": "DEFAULT_ADMIN_ROLE",
      "outputs": [
        {
          "internalType": "bytes32",
          "name": "",
          "type": "bytes32"
        }
      ],
      "stateMutability": "view",
      "type": "function"
    },
    {
      "inputs": [
        {
          "internalType": "address",
          "name": "receiver",
          "type": "address"
        }
      ],
      "name": "DepositeFor",
      "outputs": [],
      "stateMutability": "payable",
      "type": "function"
    },
    {
      "inputs": [],
      "name": "Receiver",
      "outputs": [
        {
          "internalType": "bytes32",
          "name": "",
          "type": "bytes32"
        }
      ],
      "stateMutability": "view",
      "type": "function"
    },
    {
      "inputs": [],
      "name": "Sender",
      "outputs": [
        {
          "internalType": "bytes32",
          "name": "",
          "type": "bytes32"
        }
      ],
      "stateMutability": "view",
      "type": "function"
    },
    {
      "inputs": [],
      "name": "Withdraw",
      "outputs": [],
      "stateMutability": "nonpayable",
      "type": "function"
    },
    {
      "inputs": [
        {
          "internalType": "bytes32",
          "name": "c__0x4a11fab0",
          "type": "bytes32"
        }
      ],
      "name": "c_0x4a11fab0",
      "outputs": [],
      "stateMutability": "pure",
      "type": "function"
    },
    {
      "inputs": [],
      "name": "getBalance",
      "outputs": [
        {
          "internalType": "uint256",
          "name": "",
          "type": "uint256"
        }
      ],
      "stateMutability": "view",
      "type": "function"
    },
    {
      "inputs": [
        {
          "internalType": "bytes32",
          "name": "role",
          "type": "bytes32"
        }
      ],
      "name": "getRoleAdmin",
      "outputs": [
        {
          "internalType": "bytes32",
          "name": "",
          "type": "bytes32"
        }
      ],
      "stateMutability": "view",
      "type": "function"
    },
    {
      "inputs": [
        {
          "internalType": "bytes32",
          "name": "role",
          "type": "bytes32"
        },
        {
          "internalType": "address",
          "name": "account",
          "type": "address"
        }
      ],
      "name": "grantRole",
      "outputs": [],
      "stateMutability": "nonpayable",
      "type": "function"
    },
    {
      "inputs": [
        {
          "internalType": "bytes32",
          "name": "role",
          "type": "bytes32"
        },
        {
          "internalType": "address",
          "name": "account",
          "type": "address"
        }
      ],
      "name": "hasRole",
      "outputs": [
        {
          "internalType": "bool",
          "name": "",
          "type": "bool"
        }
      ],
      "stateMutability": "view",
      "type": "function"
    },
    {
      "inputs": [
        {
          "internalType": "bytes32",
          "name": "role",
          "type": "bytes32"
        },
        {
          "internalType": "address",
          "name": "account",
          "type": "address"
        }
      ],
      "name": "renounceRole",
      "outputs": [],
      "stateMutability": "nonpayable",
      "type": "function"
    },
    {
      "inputs": [
        {
          "internalType": "bytes32",
          "name": "role",
          "type": "bytes32"
        },
        {
          "internalType": "address",
          "name": "account",
          "type": "address"
        }
      ],
      "name": "revokeRole",
      "outputs": [],
      "stateMutability": "nonpayable",
      "type": "function"
    },
    {
      "inputs": [
        {
          "internalType": "bytes4",
          "name": "interfaceId",
          "type": "bytes4"
        }
      ],
      "name": "supportsInterface",
      "outputs": [
        {
          "internalType": "bool",
          "name": "",
          "type": "bool"
        }
      ],
      "stateMutability": "view",
      "type": "function"
    }
  ],
  "bytecode": "0x6080604052600f6001553480156200001657600080fd5b506200004b7f84131a19cb5b4f872c17a761a6aacf96bd33f3c9561046e0b601aa548253775360001b6200015a60201b60201c565b6200007f7fc7a877296f53d9b24d400878a7e6b3ca7f16a460de5845c584026a72fa8463c760001b6200015a60201b60201c565b620000b37f54eac6c755cdc65cda9a7d6dd0c0ccd949cd5f19cf711a5de3f7d795a11ea81a60001b6200015a60201b60201c565b42600281905550620000ee7ff08908da1ac460c08e06c63db356c0088ded57275e2dd282c1abceef1d23d38d60001b6200015a60201b60201c565b620001227f50cfc62a4118364ed15eb892d6ade10ae20ef93d84f4fa7b0f33235b2ed1f07360001b6200015a60201b60201c565b620001547fd0d9c70b33dd60afacb55d8ff719509eca8de63778217873fac25c4d1f90353d336200015d60201b60201c565b620002c0565b50565b6200016f82826200024e60201b60201c565b6200024a57600160008084815260200190815260200160002060000160008373ffffffffffffffffffffffffffffffffffffffff1673ffffffffffffffffffffffffffffffffffffffff16815260200190815260200160002060006101000a81548160ff021916908315150217905550620001ef620002b860201b60201c565b73ffffffffffffffffffffffffffffffffffffffff168173ffffffffffffffffffffffffffffffffffffffff16837f2f8788117e7eff1d82e926ec794901d17c78024a50270940304540a733656f0d60405160405180910390a45b5050565b600080600084815260200190815260200160002060000160008373ffffffffffffffffffffffffffffffffffffffff1673ffffffffffffffffffffffffffffffffffffffff16815260200190815260200160002060009054906101000a900460ff16905092915050565b600033905090565b611bf780620002d06000396000f3fe6080604052600436106100dd5760003560e01c80637df4151e1161007f578063a217fddf11610059578063a217fddf1461029f578063cc693304146102ca578063d547741f146102f3578063eea96c571461031c576100dd565b80637df4151e1461021b5780639068ed171461023757806391d1485414610262576100dd565b80632f2ff15d116100bb5780632f2ff15d1461018757806336568abe146101b057806357ea89b6146101d95780637312c065146101f0576100dd565b806301ffc9a7146100e257806312065fe01461011f578063248a9ca31461014a575b600080fd5b3480156100ee57600080fd5b5061010960048036038101906101049190611517565b610347565b6040516101169190611843565b60405180910390f35b34801561012b57600080fd5b506101346103c1565b604051610141919061193b565b60405180910390f35b34801561015657600080fd5b50610171600480360381019061016c91906114b2565b61044d565b60405161017e919061185e565b60405180910390f35b34801561019357600080fd5b506101ae60048036038101906101a991906114db565b61046c565b005b3480156101bc57600080fd5b506101d760048036038101906101d291906114db565b610495565b005b3480156101e557600080fd5b506101ee610518565b005b3480156101fc57600080fd5b50610205610ba8565b604051610212919061185e565b60405180910390f35b61023560048036038101906102309190611489565b610bcc565b005b34801561024357600080fd5b5061024c610d9b565b604051610259919061185e565b60405180910390f35b34801561026e57600080fd5b50610289600480360381019061028491906114db565b610dbf565b6040516102969190611843565b60405180910390f35b3480156102ab57600080fd5b506102b4610e29565b6040516102c1919061185e565b60405180910390f35b3480156102d657600080fd5b506102f160048036038101906102ec91906114b2565b610e30565b005b3480156102ff57600080fd5b5061031a600480360381019061031591906114db565b610e33565b005b34801561032857600080fd5b50610331610e5c565b60405161033e919061185e565b60405180910390f35b60007f7965db0b000000000000000000000000000000000000000000000000000000007bffffffffffffffffffffffffffffffffffffffffffffffffffffffff1916827bffffffffffffffffffffffffffffffffffffffffffffffffffffffff191614806103ba57506103b982610e80565b5b9050919050565b60006103ef7ff940e4b85aba930bcd75a9db89d541dfb8cdf76a6578a626840b4e1f1cb3213860001b610e30565b61041b7f1516aeb32666e8419541aa513fe5e187b6757c574b21979b5cb31fca0eb0091860001b610e30565b6104477f7193ac124993badfbe0e9d3b5a2e83f449cafc7b111b5974545d5f2184cbc7f960001b610e30565b47905090565b6000806000838152602001908152602001600020600101549050919050565b6104758261044d565b61048681610481610eea565b610ef2565b6104908383610f8f565b505050565b61049d610eea565b73ffffffffffffffffffffffffffffffffffffffff168173ffffffffffffffffffffffffffffffffffffffff161461050a576040517f08c379a00000000000000000000000000000000000000000000000000000000081526004016105019061191b565b60405180910390fd5b610514828261106f565b5050565b6105447fd3948f3f607f778891d56ad51e0128f8e6b7f81ec455d9e421b0bec87e83988960001b610e30565b6105707f0eecbcc592a072cfe50554294930e6142c730d6cf0c915a19682633ef81afcab60001b610e30565b61059c7f27b3638c048ec503644775686a5aeec61dc631f0fef44ab032966b480799f0c860001b610e30565b6000600254426105ac9190611a2d565b90506105da7f20c3e1940a623450a7d99ba90a1a4e0cfcc2e3e46f95ce48c77064dacdd5728160001b610e30565b6106067ffcd60b620aa50e073f0a3599f69f0cd8ea3650ef4331410c11feadd4de23196960001b610e30565b6106307fcf2b1209506b76f140fb1bc5fe66d6e42627c4b9703a951d65552f50f14c9ee733610dbf565b156108ed576106617f9ff8371addd979d48cae2ec33aca4a5cdbb72e1ae909e9b56d60892e5c3d86b660001b610e30565b61068d7fa9e2f6c6144b16721713b36ecae4fbf58041aeed490d77c0a5c968efd0cdc9c060001b610e30565b6106b97f7bebf1a378c1b4e494a4607a1239b25ce82cec21d6c79fe1827b1ecbfedf8b8860001b610e30565b6106e57fb65f2f93d9c6955d38b5a260b437c35aa27ab48bc2e5365df355ecf92c627ead60001b610e30565b60004711610728576040517f08c379a000000000000000000000000000000000000000000000000000000000815260040161071f906118bb565b60405180910390fd5b6107547fea2eaf16508de3eef011a3cb1b54842cef2c0118cfc20440d07f1716fce387c360001b610e30565b6107807f353530825f6118b2876104b223f158c71d7d5ee2340cfb936670cd8141d476c160001b610e30565b6107ac7f8ba2e382066f9dd6559076cf5a646ddc0d4afd649476bc94052bbf102e60b6cf60001b610e30565b6107d87f83bd498e29b8d845bf410200cfd1119d83e41ba66d8d7cfa6aaaf2dd8ace3d3a60001b610e30565b60015481101561081d576040517f08c379a0000000000000000000000000000000000000000000000000000000008152600401610814906118fb565b60405180910390fd5b6108497f1acda2d904dd09db6550fc6fc228d84f07a1bf9773c21355d7619b98ae5c786a60001b610e30565b6108757fb692d5e694ab31f8cf4e1ddb7685fda7e9d77586253bc49b1f5deee61742cbdb60001b610e30565b6108a17f5bed96bd93360cdea47d16872522a9ef4ff8ed765bf46668709d38c5d4c3ae1e60001b610e30565b3373ffffffffffffffffffffffffffffffffffffffff166108fc479081150290604051600060405180830381858888f193505050501580156108e7573d6000803e3d6000fd5b50610ba5565b6109197f1cb0293473e6ab5c4f3a511687e8bdb4e3ccfc46572419f6b8b9f908fac7288d60001b610e30565b6109457f18d700b0427c61aa1f94dafe07521f8ce2946d1917321fe866d16f8b477827c060001b610e30565b61096f7f94201143cc0a32610f14f8f185ebb23e4ca60f1758e49668647d0879b1e81f0b33610dbf565b15610b77576109a07f564648632762b164cc7112f31b30371357880b50d903333e2bc08f6398a4141760001b610e30565b6109cc7fff7a87f0401d996c63bdca2413c2869b27152961d9c59f6b730131e8f0b9337d60001b610e30565b6109f87f34584c10c309ec55c278942c613ff96a93dc7f39cfe965b13627055dfb4eb42f60001b610e30565b610a247ff58416594e253a011e4e87d6e91084e8b3a0974e7e80d44ec90c41863bd735e060001b610e30565b6001548110610a68576040517f08c379a0000000000000000000000000000000000000000000000000000000008152600401610a5f906118db565b60405180910390fd5b610a947fcc922f9768b0154405171caba1fc588af0442b7cde4b427bd284e6054c5366c060001b610e30565b610ac07f05534accf0f29b30a3371de7003a0bd6926de7ff01f004042c1396f697ad3b7f60001b610e30565b610aec7ff993779e2a3ae320440d1217d66ee65a213d1210340834cdb80597b5644344ee60001b610e30565b3373ffffffffffffffffffffffffffffffffffffffff166108fc600360003373ffffffffffffffffffffffffffffffffffffffff1673ffffffffffffffffffffffffffffffffffffffff168152602001908152602001600020549081150290604051600060405180830381858888f19350505050158015610b71573d6000803e3d6000fd5b50610ba4565b610ba37f01644bf14b16b8fb24b8d47cdbbf86ed7e6fe318587da3fdd106aea474addad260001b610e30565b5b5b50565b7f94201143cc0a32610f14f8f185ebb23e4ca60f1758e49668647d0879b1e81f0b81565b610bf87f1c4dc149f636b2caac596833199eb0b5b9cd477140e9cc300d6d76ec34c06b1f60001b610e30565b610c247f53fb0d1c98f4de871d949a71b6e70398736e47f35ffe18da3af9fe48295fe3f660001b610e30565b610c507f1e522c1653f2106ea7b3f50885488c51ef83905f1e554ab22780545ed27969c060001b610e30565b610c7a7fcf2b1209506b76f140fb1bc5fe66d6e42627c4b9703a951d65552f50f14c9ee733610f8f565b610ca67f7deecb4f316c2897bd8e67e8a3f36dbc2aa603fd55db92065f07c427dda0930a60001b610e30565b610cd27f7d36f81d66657bee4f373ef1e101a1da2747ba760266885e3e6e83928fe6dfe860001b610e30565b610cfc7f94201143cc0a32610f14f8f185ebb23e4ca60f1758e49668647d0879b1e81f0b82610f8f565b610d287fc376bb8ea45b8a5f85773df752545e7c53715693f01240524a7df007e0186ea560001b610e30565b610d547f60fdc01c3a7504e8bd27caab36187818be87ed5eea3f6f2633a3b5c5ed1e56d260001b610e30565b34600360008373ffffffffffffffffffffffffffffffffffffffff1673ffffffffffffffffffffffffffffffffffffffff1681526020019081526020016000208190555050565b7fd0d9c70b33dd60afacb55d8ff719509eca8de63778217873fac25c4d1f90353d81565b600080600084815260200190815260200160002060000160008373ffffffffffffffffffffffffffffffffffffffff1673ffffffffffffffffffffffffffffffffffffffff16815260200190815260200160002060009054906101000a900460ff16905092915050565b6000801b81565b50565b610e3c8261044d565b610e4d81610e48610eea565b610ef2565b610e57838361106f565b505050565b7fcf2b1209506b76f140fb1bc5fe66d6e42627c4b9703a951d65552f50f14c9ee781565b60007f01ffc9a7000000000000000000000000000000000000000000000000000000007bffffffffffffffffffffffffffffffffffffffffffffffffffffffff1916827bffffffffffffffffffffffffffffffffffffffffffffffffffffffff1916149050919050565b600033905090565b610efc8282610dbf565b610f8b57610f218173ffffffffffffffffffffffffffffffffffffffff166014611150565b610f2f8360001c6020611150565b604051602001610f40929190611809565b6040516020818303038152906040526040517f08c379a0000000000000000000000000000000000000000000000000000000008152600401610f829190611879565b60405180910390fd5b5050565b610f998282610dbf565b61106b57600160008084815260200190815260200160002060000160008373ffffffffffffffffffffffffffffffffffffffff1673ffffffffffffffffffffffffffffffffffffffff16815260200190815260200160002060006101000a81548160ff021916908315150217905550611010610eea565b73ffffffffffffffffffffffffffffffffffffffff168173ffffffffffffffffffffffffffffffffffffffff16837f2f8788117e7eff1d82e926ec794901d17c78024a50270940304540a733656f0d60405160405180910390a45b5050565b6110798282610dbf565b1561114c57600080600084815260200190815260200160002060000160008373ffffffffffffffffffffffffffffffffffffffff1673ffffffffffffffffffffffffffffffffffffffff16815260200190815260200160002060006101000a81548160ff0219169083151502179055506110f1610eea565b73ffffffffffffffffffffffffffffffffffffffff168173ffffffffffffffffffffffffffffffffffffffff16837ff6391f5c32d9c69d2a47ea670b442974b53935d1edc7fd64eb21e047a839171b60405160405180910390a45b5050565b60606000600283600261116391906119d3565b61116d919061197d565b67ffffffffffffffff8111156111ac577f4e487b7100000000000000000000000000000000000000000000000000000000600052604160045260246000fd5b6040519080825280601f01601f1916602001820160405280156111de5781602001600182028036833780820191505090505b5090507f30000000000000000000000000000000000000000000000000000000000000008160008151811061123c577f4e487b7100000000000000000000000000000000000000000000000000000000600052603260045260246000fd5b60200101907effffffffffffffffffffffffffffffffffffffffffffffffffffffffffffff1916908160001a9053507f7800000000000000000000000000000000000000000000000000000000000000816001815181106112c6577f4e487b7100000000000000000000000000000000000000000000000000000000600052603260045260246000fd5b60200101907effffffffffffffffffffffffffffffffffffffffffffffffffffffffffffff1916908160001a9053506000600184600261130691906119d3565b611310919061197d565b90505b60018111156113fc577f3031323334353637383961626364656600000000000000000000000000000000600f861660108110611378577f4e487b7100000000000000000000000000000000000000000000000000000000600052603260045260246000fd5b1a60f81b8282815181106113b5577f4e487b7100000000000000000000000000000000000000000000000000000000600052603260045260246000fd5b60200101907effffffffffffffffffffffffffffffffffffffffffffffffffffffffffffff1916908160001a905350600485901c9450806113f590611b12565b9050611313565b5060008414611440576040517f08c379a00000000000000000000000000000000000000000000000000000000081526004016114379061189b565b60405180910390fd5b8091505092915050565b60008135905061145981611b7c565b92915050565b60008135905061146e81611b93565b92915050565b60008135905061148381611baa565b92915050565b60006020828403121561149b57600080fd5b60006114a98482850161144a565b91505092915050565b6000602082840312156114c457600080fd5b60006114d28482850161145f565b91505092915050565b600080604083850312156114ee57600080fd5b60006114fc8582860161145f565b925050602061150d8582860161144a565b9150509250929050565b60006020828403121561152957600080fd5b600061153784828501611474565b91505092915050565b61154981611a73565b82525050565b61155881611a7f565b82525050565b600061156982611956565b6115738185611961565b9350611583818560208601611adf565b61158c81611b6b565b840191505092915050565b60006115a282611956565b6115ac8185611972565b93506115bc818560208601611adf565b80840191505092915050565b60006115d5602083611961565b91507f537472696e67733a20686578206c656e67746820696e73756666696369656e746000830152602082019050919050565b6000611615601283611961565b91507f6e6f2066756e647320617661696c61626c6500000000000000000000000000006000830152602082019050919050565b6000611655603083611961565b91507f74696d652069732075702c207468652066756e6473206172652072657475726e60008301527f656420746f207468652073656e646572000000000000000000000000000000006020830152604082019050919050565b60006116bb601783611972565b91507f416363657373436f6e74726f6c3a206163636f756e74200000000000000000006000830152601782019050919050565b60006116fb602583611961565b91507f796f752063616e742067657420726566756e64206265666f72652074696d652060008301527f6c696d69740000000000000000000000000000000000000000000000000000006020830152604082019050919050565b6000611761601183611972565b91507f206973206d697373696e6720726f6c65200000000000000000000000000000006000830152601182019050919050565b60006117a1602f83611961565b91507f416363657373436f6e74726f6c3a2063616e206f6e6c792072656e6f756e636560008301527f20726f6c657320666f722073656c6600000000000000000000000000000000006020830152604082019050919050565b61180381611ad5565b82525050565b6000611814826116ae565b91506118208285611597565b915061182b82611754565b91506118378284611597565b91508190509392505050565b60006020820190506118586000830184611540565b92915050565b6000602082019050611873600083018461154f565b92915050565b60006020820190508181036000830152611893818461155e565b905092915050565b600060208201905081810360008301526118b4816115c8565b9050919050565b600060208201905081810360008301526118d481611608565b9050919050565b600060208201905081810360008301526118f481611648565b9050919050565b60006020820190508181036000830152611914816116ee565b9050919050565b6000602082019050818103600083015261193481611794565b9050919050565b600060208201905061195060008301846117fa565b92915050565b600081519050919050565b600082825260208201905092915050565b600081905092915050565b600061198882611ad5565b915061199383611ad5565b9250827fffffffffffffffffffffffffffffffffffffffffffffffffffffffffffffffff038211156119c8576119c7611b3c565b5b828201905092915050565b60006119de82611ad5565b91506119e983611ad5565b9250817fffffffffffffffffffffffffffffffffffffffffffffffffffffffffffffffff0483118215151615611a2257611a21611b3c565b5b828202905092915050565b6000611a3882611ad5565b9150611a4383611ad5565b925082821015611a5657611a55611b3c565b5b828203905092915050565b6000611a6c82611ab5565b9050919050565b60008115159050919050565b6000819050919050565b60007fffffffff0000000000000000000000000000000000000000000000000000000082169050919050565b600073ffffffffffffffffffffffffffffffffffffffff82169050919050565b6000819050919050565b60005b83811015611afd578082015181840152602081019050611ae2565b83811115611b0c576000848401525b50505050565b6000611b1d82611ad5565b91506000821415611b3157611b30611b3c565b5b600182039050919050565b7f4e487b7100000000000000000000000000000000000000000000000000000000600052601160045260246000fd5b6000601f19601f8301169050919050565b611b8581611a61565b8114611b9057600080fd5b50565b611b9c81611a7f565b8114611ba757600080fd5b50565b611bb381611a89565b8114611bbe57600080fd5b5056fea2646970667358221220739b7572ceb6fbfa8df6f80f2ff74da23f9320a066a40ead7a8f9c74709e44fb64736f6c63430008000033",
  "linkReferences": {},
  "deployedLinkReferences": {}
}