{
  "_format": "hh-sol-artifact-1",
  "contractName": "Escrow",
  "sourceName": "contracts/Escrow.sol",
  "abi": [
    {
      "inputs": [],
      "stateMutability": "nonpayable",
      "type": "constructor"
    },
    {
      "anonymous": false,
      "inputs": [
        {
          "indexed": true,
          "internalType": "bytes32",
          "name": "role",
          "type": "bytes32"
        },
        {
          "indexed": true,
          "internalType": "bytes32",
          "name": "previousAdminRole",
          "type": "bytes32"
        },
        {
          "indexed": true,
          "internalType": "bytes32",
          "name": "newAdminRole",
          "type": "bytes32"
        }
      ],
      "name": "RoleAdminChanged",
      "type": "event"
    },
    {
      "anonymous": false,
      "inputs": [
        {
          "indexed": true,
          "internalType": "bytes32",
          "name": "role",
          "type": "bytes32"
        },
        {
          "indexed": true,
          "internalType": "address",
          "name": "account",
          "type": "address"
        },
        {
          "indexed": true,
          "internalType": "address",
          "name": "sender",
          "type": "address"
        }
      ],
      "name": "RoleGranted",
      "type": "event"
    },
    {
      "anonymous": false,
      "inputs": [
        {
          "indexed": true,
          "internalType": "bytes32",
          "name": "role",
          "type": "bytes32"
        },
        {
          "indexed": true,
          "internalType": "address",
          "name": "account",
          "type": "address"
        },
        {
          "indexed": true,
          "internalType": "address",
          "name": "sender",
          "type": "address"
        }
      ],
      "name": "RoleRevoked",
      "type": "event"
    },
    {
      "inputs": [],
      "name": "Agent",
      "outputs": [
        {
          "internalType": "bytes32",
          "name": "",
          "type": "bytes32"
        }
      ],
      "stateMutability": "view",
      "type": "function"
    },
    {
      "inputs": [],
      "name": "DEFAULT_ADMIN_ROLE",
      "outputs": [
        {
          "internalType": "bytes32",
          "name": "",
          "type": "bytes32"
        }
      ],
      "stateMutability": "view",
      "type": "function"
    },
    {
      "inputs": [
        {
          "internalType": "address",
          "name": "receiver",
          "type": "address"
        }
      ],
      "name": "DepositeFor",
      "outputs": [],
      "stateMutability": "payable",
      "type": "function"
    },
    {
      "inputs": [],
      "name": "Receiver",
      "outputs": [
        {
          "internalType": "bytes32",
          "name": "",
          "type": "bytes32"
        }
      ],
      "stateMutability": "view",
      "type": "function"
    },
    {
      "inputs": [],
      "name": "Sender",
      "outputs": [
        {
          "internalType": "bytes32",
          "name": "",
          "type": "bytes32"
        }
      ],
      "stateMutability": "view",
      "type": "function"
    },
    {
      "inputs": [],
      "name": "Withdraw",
      "outputs": [],
      "stateMutability": "nonpayable",
      "type": "function"
    },
    {
      "inputs": [],
      "name": "getBalance",
      "outputs": [
        {
          "internalType": "uint256",
          "name": "",
          "type": "uint256"
        }
      ],
      "stateMutability": "view",
      "type": "function"
    },
    {
      "inputs": [
        {
          "internalType": "bytes32",
          "name": "role",
          "type": "bytes32"
        }
      ],
      "name": "getRoleAdmin",
      "outputs": [
        {
          "internalType": "bytes32",
          "name": "",
          "type": "bytes32"
        }
      ],
      "stateMutability": "view",
      "type": "function"
    },
    {
      "inputs": [
        {
          "internalType": "bytes32",
          "name": "role",
          "type": "bytes32"
        },
        {
          "internalType": "address",
          "name": "account",
          "type": "address"
        }
      ],
      "name": "grantRole",
      "outputs": [],
      "stateMutability": "nonpayable",
      "type": "function"
    },
    {
      "inputs": [
        {
          "internalType": "bytes32",
          "name": "role",
          "type": "bytes32"
        },
        {
          "internalType": "address",
          "name": "account",
          "type": "address"
        }
      ],
      "name": "hasRole",
      "outputs": [
        {
          "internalType": "bool",
          "name": "",
          "type": "bool"
        }
      ],
      "stateMutability": "view",
      "type": "function"
    },
    {
      "inputs": [
        {
          "internalType": "bytes32",
          "name": "role",
          "type": "bytes32"
        },
        {
          "internalType": "address",
          "name": "account",
          "type": "address"
        }
      ],
      "name": "renounceRole",
      "outputs": [],
      "stateMutability": "nonpayable",
      "type": "function"
    },
    {
      "inputs": [
        {
          "internalType": "bytes32",
          "name": "role",
          "type": "bytes32"
        },
        {
          "internalType": "address",
          "name": "account",
          "type": "address"
        }
      ],
      "name": "revokeRole",
      "outputs": [],
      "stateMutability": "nonpayable",
      "type": "function"
    },
    {
      "inputs": [
        {
          "internalType": "bytes4",
          "name": "interfaceId",
          "type": "bytes4"
        }
      ],
      "name": "supportsInterface",
      "outputs": [
        {
          "internalType": "bool",
          "name": "",
          "type": "bool"
        }
      ],
      "stateMutability": "view",
      "type": "function"
    }
  ],
  "bytecode": "0x6080604052600f60015534801561001557600080fd5b504260028190555061004d7fd0d9c70b33dd60afacb55d8ff719509eca8de63778217873fac25c4d1f90353d3361005260201b60201c565b6101b0565b610062828261013e60201b60201c565b61013a57600160008084815260200190815260200160002060000160008373ffffffffffffffffffffffffffffffffffffffff1673ffffffffffffffffffffffffffffffffffffffff16815260200190815260200160002060006101000a81548160ff0219169083151502179055506100df6101a860201b60201c565b73ffffffffffffffffffffffffffffffffffffffff168173ffffffffffffffffffffffffffffffffffffffff16837f2f8788117e7eff1d82e926ec794901d17c78024a50270940304540a733656f0d60405160405180910390a45b5050565b600080600084815260200190815260200160002060000160008373ffffffffffffffffffffffffffffffffffffffff1673ffffffffffffffffffffffffffffffffffffffff16815260200190815260200160002060009054906101000a900460ff16905092915050565b600033905090565b611582806101bf6000396000f3fe6080604052600436106100c25760003560e01c80637312c0651161007f57806391d148541161005957806391d1485414610247578063a217fddf14610284578063d547741f146102af578063eea96c57146102d8576100c2565b80637312c065146101d55780637df4151e146102005780639068ed171461021c576100c2565b806301ffc9a7146100c757806312065fe014610104578063248a9ca31461012f5780632f2ff15d1461016c57806336568abe1461019557806357ea89b6146101be575b600080fd5b3480156100d357600080fd5b506100ee60048036038101906100e99190610ea2565b610303565b6040516100fb91906111ce565b60405180910390f35b34801561011057600080fd5b5061011961037d565b60405161012691906112c6565b60405180910390f35b34801561013b57600080fd5b5061015660048036038101906101519190610e3d565b610385565b60405161016391906111e9565b60405180910390f35b34801561017857600080fd5b50610193600480360381019061018e9190610e66565b6103a4565b005b3480156101a157600080fd5b506101bc60048036038101906101b79190610e66565b6103cd565b005b3480156101ca57600080fd5b506101d3610450565b005b3480156101e157600080fd5b506101ea610663565b6040516101f791906111e9565b60405180910390f35b61021a60048036038101906102159190610e14565b610687565b005b34801561022857600080fd5b50610231610729565b60405161023e91906111e9565b60405180910390f35b34801561025357600080fd5b5061026e60048036038101906102699190610e66565b61074d565b60405161027b91906111ce565b60405180910390f35b34801561029057600080fd5b506102996107b7565b6040516102a691906111e9565b60405180910390f35b3480156102bb57600080fd5b506102d660048036038101906102d19190610e66565b6107be565b005b3480156102e457600080fd5b506102ed6107e7565b6040516102fa91906111e9565b60405180910390f35b60007f7965db0b000000000000000000000000000000000000000000000000000000007bffffffffffffffffffffffffffffffffffffffffffffffffffffffff1916827bffffffffffffffffffffffffffffffffffffffffffffffffffffffff1916148061037657506103758261080b565b5b9050919050565b600047905090565b6000806000838152602001908152602001600020600101549050919050565b6103ad82610385565b6103be816103b9610875565b61087d565b6103c8838361091a565b505050565b6103d5610875565b73ffffffffffffffffffffffffffffffffffffffff168173ffffffffffffffffffffffffffffffffffffffff1614610442576040517f08c379a0000000000000000000000000000000000000000000000000000000008152600401610439906112a6565b60405180910390fd5b61044c82826109fa565b5050565b60006002544261046091906113b8565b905061048c7fcf2b1209506b76f140fb1bc5fe66d6e42627c4b9703a951d65552f50f14c9ee73361074d565b1561056557600047116104d4576040517f08c379a00000000000000000000000000000000000000000000000000000000081526004016104cb90611246565b60405180910390fd5b600154811015610519576040517f08c379a000000000000000000000000000000000000000000000000000000000815260040161051090611286565b60405180910390fd5b3373ffffffffffffffffffffffffffffffffffffffff166108fc479081150290604051600060405180830381858888f1935050505015801561055f573d6000803e3d6000fd5b50610660565b61058f7f94201143cc0a32610f14f8f185ebb23e4ca60f1758e49668647d0879b1e81f0b3361074d565b1561065f5760015481106105d8576040517f08c379a00000000000000000000000000000000000000000000000000000000081526004016105cf90611266565b60405180910390fd5b3373ffffffffffffffffffffffffffffffffffffffff166108fc600360003373ffffffffffffffffffffffffffffffffffffffff1673ffffffffffffffffffffffffffffffffffffffff168152602001908152602001600020549081150290604051600060405180830381858888f1935050505015801561065d573d6000803e3d6000fd5b505b5b50565b7f94201143cc0a32610f14f8f185ebb23e4ca60f1758e49668647d0879b1e81f0b81565b426002819055506106b87fcf2b1209506b76f140fb1bc5fe66d6e42627c4b9703a951d65552f50f14c9ee73361091a565b6106e27f94201143cc0a32610f14f8f185ebb23e4ca60f1758e49668647d0879b1e81f0b8261091a565b34600360008373ffffffffffffffffffffffffffffffffffffffff1673ffffffffffffffffffffffffffffffffffffffff1681526020019081526020016000208190555050565b7fd0d9c70b33dd60afacb55d8ff719509eca8de63778217873fac25c4d1f90353d81565b600080600084815260200190815260200160002060000160008373ffffffffffffffffffffffffffffffffffffffff1673ffffffffffffffffffffffffffffffffffffffff16815260200190815260200160002060009054906101000a900460ff16905092915050565b6000801b81565b6107c782610385565b6107d8816107d3610875565b61087d565b6107e283836109fa565b505050565b7fcf2b1209506b76f140fb1bc5fe66d6e42627c4b9703a951d65552f50f14c9ee781565b60007f01ffc9a7000000000000000000000000000000000000000000000000000000007bffffffffffffffffffffffffffffffffffffffffffffffffffffffff1916827bffffffffffffffffffffffffffffffffffffffffffffffffffffffff1916149050919050565b600033905090565b610887828261074d565b610916576108ac8173ffffffffffffffffffffffffffffffffffffffff166014610adb565b6108ba8360001c6020610adb565b6040516020016108cb929190611194565b6040516020818303038152906040526040517f08c379a000000000000000000000000000000000000000000000000000000000815260040161090d9190611204565b60405180910390fd5b5050565b610924828261074d565b6109f657600160008084815260200190815260200160002060000160008373ffffffffffffffffffffffffffffffffffffffff1673ffffffffffffffffffffffffffffffffffffffff16815260200190815260200160002060006101000a81548160ff02191690831515021790555061099b610875565b73ffffffffffffffffffffffffffffffffffffffff168173ffffffffffffffffffffffffffffffffffffffff16837f2f8788117e7eff1d82e926ec794901d17c78024a50270940304540a733656f0d60405160405180910390a45b5050565b610a04828261074d565b15610ad757600080600084815260200190815260200160002060000160008373ffffffffffffffffffffffffffffffffffffffff1673ffffffffffffffffffffffffffffffffffffffff16815260200190815260200160002060006101000a81548160ff021916908315150217905550610a7c610875565b73ffffffffffffffffffffffffffffffffffffffff168173ffffffffffffffffffffffffffffffffffffffff16837ff6391f5c32d9c69d2a47ea670b442974b53935d1edc7fd64eb21e047a839171b60405160405180910390a45b5050565b606060006002836002610aee919061135e565b610af89190611308565b67ffffffffffffffff811115610b37577f4e487b7100000000000000000000000000000000000000000000000000000000600052604160045260246000fd5b6040519080825280601f01601f191660200182016040528015610b695781602001600182028036833780820191505090505b5090507f300000000000000000000000000000000000000000000000000000000000000081600081518110610bc7577f4e487b7100000000000000000000000000000000000000000000000000000000600052603260045260246000fd5b60200101907effffffffffffffffffffffffffffffffffffffffffffffffffffffffffffff1916908160001a9053507f780000000000000000000000000000000000000000000000000000000000000081600181518110610c51577f4e487b7100000000000000000000000000000000000000000000000000000000600052603260045260246000fd5b60200101907effffffffffffffffffffffffffffffffffffffffffffffffffffffffffffff1916908160001a90535060006001846002610c91919061135e565b610c9b9190611308565b90505b6001811115610d87577f3031323334353637383961626364656600000000000000000000000000000000600f861660108110610d03577f4e487b7100000000000000000000000000000000000000000000000000000000600052603260045260246000fd5b1a60f81b828281518110610d40577f4e487b7100000000000000000000000000000000000000000000000000000000600052603260045260246000fd5b60200101907effffffffffffffffffffffffffffffffffffffffffffffffffffffffffffff1916908160001a905350600485901c945080610d809061149d565b9050610c9e565b5060008414610dcb576040517f08c379a0000000000000000000000000000000000000000000000000000000008152600401610dc290611226565b60405180910390fd5b8091505092915050565b600081359050610de481611507565b92915050565b600081359050610df98161151e565b92915050565b600081359050610e0e81611535565b92915050565b600060208284031215610e2657600080fd5b6000610e3484828501610dd5565b91505092915050565b600060208284031215610e4f57600080fd5b6000610e5d84828501610dea565b91505092915050565b60008060408385031215610e7957600080fd5b6000610e8785828601610dea565b9250506020610e9885828601610dd5565b9150509250929050565b600060208284031215610eb457600080fd5b6000610ec284828501610dff565b91505092915050565b610ed4816113fe565b82525050565b610ee38161140a565b82525050565b6000610ef4826112e1565b610efe81856112ec565b9350610f0e81856020860161146a565b610f17816114f6565b840191505092915050565b6000610f2d826112e1565b610f3781856112fd565b9350610f4781856020860161146a565b80840191505092915050565b6000610f606020836112ec565b91507f537472696e67733a20686578206c656e67746820696e73756666696369656e746000830152602082019050919050565b6000610fa06012836112ec565b91507f6e6f2066756e647320617661696c61626c6500000000000000000000000000006000830152602082019050919050565b6000610fe06030836112ec565b91507f74696d652069732075702c207468652066756e6473206172652072657475726e60008301527f656420746f207468652073656e646572000000000000000000000000000000006020830152604082019050919050565b60006110466017836112fd565b91507f416363657373436f6e74726f6c3a206163636f756e74200000000000000000006000830152601782019050919050565b60006110866025836112ec565b91507f796f752063616e742067657420726566756e64206265666f72652074696d652060008301527f6c696d69740000000000000000000000000000000000000000000000000000006020830152604082019050919050565b60006110ec6011836112fd565b91507f206973206d697373696e6720726f6c65200000000000000000000000000000006000830152601182019050919050565b600061112c602f836112ec565b91507f416363657373436f6e74726f6c3a2063616e206f6e6c792072656e6f756e636560008301527f20726f6c657320666f722073656c6600000000000000000000000000000000006020830152604082019050919050565b61118e81611460565b82525050565b600061119f82611039565b91506111ab8285610f22565b91506111b6826110df565b91506111c28284610f22565b91508190509392505050565b60006020820190506111e36000830184610ecb565b92915050565b60006020820190506111fe6000830184610eda565b92915050565b6000602082019050818103600083015261121e8184610ee9565b905092915050565b6000602082019050818103600083015261123f81610f53565b9050919050565b6000602082019050818103600083015261125f81610f93565b9050919050565b6000602082019050818103600083015261127f81610fd3565b9050919050565b6000602082019050818103600083015261129f81611079565b9050919050565b600060208201905081810360008301526112bf8161111f565b9050919050565b60006020820190506112db6000830184611185565b92915050565b600081519050919050565b600082825260208201905092915050565b600081905092915050565b600061131382611460565b915061131e83611460565b9250827fffffffffffffffffffffffffffffffffffffffffffffffffffffffffffffffff03821115611353576113526114c7565b5b828201905092915050565b600061136982611460565b915061137483611460565b9250817fffffffffffffffffffffffffffffffffffffffffffffffffffffffffffffffff04831182151516156113ad576113ac6114c7565b5b828202905092915050565b60006113c382611460565b91506113ce83611460565b9250828210156113e1576113e06114c7565b5b828203905092915050565b60006113f782611440565b9050919050565b60008115159050919050565b6000819050919050565b60007fffffffff0000000000000000000000000000000000000000000000000000000082169050919050565b600073ffffffffffffffffffffffffffffffffffffffff82169050919050565b6000819050919050565b60005b8381101561148857808201518184015260208101905061146d565b83811115611497576000848401525b50505050565b60006114a882611460565b915060008214156114bc576114bb6114c7565b5b600182039050919050565b7f4e487b7100000000000000000000000000000000000000000000000000000000600052601160045260246000fd5b6000601f19601f8301169050919050565b611510816113ec565b811461151b57600080fd5b50565b6115278161140a565b811461153257600080fd5b50565b61153e81611414565b811461154957600080fd5b5056fea2646970667358221220774b4a37af79f25500c7a170b978aa69869bcc4ef3b8d3710329d0deb56b2e0b64736f6c63430008000033",
  "linkReferences": {},
  "deployedLinkReferences": {}
}